:100000000C9489000C94B1000C94B1000C94B100D4
:100010000C94B1000C94B1000C94B1000C94B1009C
:100020000C94B1000C94B1000C94B1000C94B1008C
:100030000C94B1000C94B1000C94B1000C94B1007C
:100040000C94EB040C94B1000C94BF090C9435058E
:100050000C94B1000C94B1000C94B1000C94B1005C
:100060000C94B1000C94B100BE05C405CA05D005BE
:10007000D605DC05E20513071A07210728072F0715
:100080004607360746073D07028988083EABAAAAFD
:10009000AABE000000803F07634236B79BD8A71A6C
:1000A00039685618AEBAAB558C1D3CB7CC5763BDFA
:1000B0006DEDFD753EF6177231BF000000803F0008
:1000C0000000000800020100000304070000000017
:1000D0000000000000000000250028002B000000A8
:1000E0000000240027002A0004040404040404047B
:1000F00002020202020203030303030301020408D3
:100100001020408001020408102001020408102081
:10011000680E11241FBECFEFD8E0DEBFCDBF12E0C6
:10012000A0E0B1E0ECE9FCE202C005900D92AA3437
:10013000B107D9F723E0AAE4B2E001C01D92A03ACA
:10014000B207E1F710E0C9E8D0E004C02197FE0152
:100150000E944116C838D107C9F70E942E110C948D
:100160004C160C940000DC01ED91FC910190F081A3
:10017000E02D0994CF92DF92EF92FF920F931F939D
:10018000CF93DF936C017A018B01C0E0D0E0CE15F4
:10019000DF0589F0D8016D918D01D601ED91FC91BB
:1001A0000190F081E02DC6010995892B11F47E01A3
:1001B00002C02196ECCFC701DF91CF911F910F9123
:1001C000FF90EF90DF90CF9008958EE492E00E9430
:1001D000900521E0892B09F420E0822F0895CF9229
:1001E000DF92EF92FF92CF93DF93EC0120E030E0BB
:1001F0004AE754E4688D798D8A8D9B8D0E94B012F8
:10020000882309F43FC080E090E0AAE7B4E4888F37
:10021000998FAA8FBB8FFE01E05CFF4F8083918393
:10022000A283B3838CA99DA9AEA9BFA918161906EC
:100230001A061B063CF56C897D898E899F899B0176
:10024000AC010E9414146B017C016C8D7D8D8E8D30
:100250009F8D9B01AC010E9444129B01AC01C70120
:10026000B6010E94B5120E9427136CAB7DAB8EAB1A
:100270009FABCE01DF91CF91FF90EF90DF90CF90B9
:100280000C947B0ADF91CF91FF90EF90DF90CF909D
:1002900008950E9447166115710579F0FB010190E0
:1002A0000020E9F73197AF01461B570BDC01ED91B8
:1002B000FC910280F381E02D099480E090E00895A4
:1002C0006AE471E08EE492E00C944B014F925F92ED
:1002D0006F927F92EF92FF920F931F93CF93DF93D2
:1002E000CDB7DEB7A1970FB6F894DEBF0FBECDBF76
:1002F0007C01FA01CB0119A2223008F42AE08E0118
:100300000F5D1F4F422E512C612C712CBF01A30198
:1003100092010E940016F901CA01015011096A30C8
:1003200014F4605D01C0695CD8016C93232B242B0D
:10033000252B61F7B801C7010E944B01A1960FB6AA
:10034000F894DEBF0FBECDBFDF91CF911F910F910B
:10035000FF90EF907F906F905F904F900895CF92B5
:10036000DF92EF92FF92CF93DF93AB01BC0177FF57
:100370001DC06A017B016DE28EE492E00E94B30031
:10038000EC0144275527BA014C195D096E097F0914
:100390002AE08EE492E00E9466018C0F9D1FDF919F
:1003A000CF91FF90EF90DF90CF9008952AE08EE4F8
:1003B00092E0DF91CF91FF90EF90DF90CF900C947F
:1003C00066018F929F92AF92BF92CF92DF92EF928F
:1003D000FF920F931F93CF93DF937C018B016C01EE
:1003E00082E0C80ED11C4701E5E08E0E911CC0E0F2
:1003F000D0E0F60141916F0150E060E070E02AE04A
:10040000C8010E9466015C016EE2C8010E94B3004F
:100410008A0D9B1DC80FD91FC814D90451F7F701C5
:10042000458150E060E070E02AE0C8010E9466016A
:100430008C0F9D1FDF91CF911F910F91FF90EF9037
:10044000DF90CF90BF90AF909F908F9008954F9284
:100450005F926F927F928F929F92AF92BF92CF9254
:10046000DF92EF92FF926B017C01B42E9B01AC01F5
:100470000E94FB14882319F06DE471E027C0260167
:100480003701E89477F82FEF3FEF4FE75FE7C301BD
:10049000B2010E94FB1481110DC02FEF3FEF4FE717
:1004A0005FE7C301B2010E94B01218161CF461E5A7
:1004B00071E00CC02FEF3FEF4FE75FE4C701B601DB
:1004C0000E940F14181694F465E571E08EE492E032
:1004D000FF90EF90DF90CF90BF90AF909F908F9064
:1004E0007F906F905F904F900C944B012FEF3FEFF8
:1004F0004FE75FECC701B6010E94B01287FDE4CF61
:1005000020E030E0A901C701B6010E94B01287FFC8
:100510000BC06DE28EE492E00E94B3004C01F7FA4A
:10052000F094F7F8F09402C0812C912CA12C60E09B
:1005300070E080E09FE3AB1441F020E030E040E267
:1005400051E40E94B512A394F6CF9B01AC01C70100
:10055000B6010E9444122B013C010E942E136B0134
:100560007C010E945D139B01AC01C301B2010E949A
:1005700043122B013C012AE0B701A6018EE492E070
:100580000E9466017C01E80CF91CBB2039F06EE288
:100590008EE492E00E94B300E80EF91EDB2CDD2011
:1005A00031F120E030E040E251E4C301B2010E94A9
:1005B00014142B013C010E942E134B01A12CB12CD1
:1005C0002AE0B501A4018EE492E00E946601E80EE3
:1005D000F91EC501B4010E945D139B01AC01C3016A
:1005E000B2010E9443122B013C01DA94D8CFC7011B
:1005F000FF90EF90DF90CF90BF90AF909F908F9043
:100600007F906F905F904F900895CF93DF9343E07A
:100610000E942702EC010E9460018C0F9D1FDF9158
:10062000CF910895BC018EE492E00C944B01CF93DE
:10063000DF93CDB7DEB728970FB6F894DEBF0FBEB5
:10064000CDBF29833A834B835C836D837E838F8305
:10065000988789E591E00E94120369817A818B81F4
:100660009C8143E00E9427028BE591E00E941203E7
:100670006D817E818F81988543E00E9427028EE5FF
:1006800091E028960FB6F894DEBF0FBECDBFDF9184
:10069000CF910C941203CF93DF93BC018EE492E0D0
:1006A0000E944B01EC010E9460018C0F9D1FDF91A5
:1006B000CF9108958F929F92AF92BF92CF92DF9287
:1006C000EF92FF920F931F93CF93DF93CDB7DEB7D7
:1006D00060970FB6F894DEBF0FBECDBF022F2987FB
:1006E000132F3A87242F4B87352F5C87462F6D8732
:1006F000572F7E87682F8F87792F988B8CEF92E00A
:100700000E945B0D29833A834B835C836D837E83D8
:100710008F83988780E691E00E944B0380E791E009
:100720000E94120329853A854B855C856D857E85FF
:100730008F8598890E9417030E94600188E791E0E5
:100740000E94120329813A814B815C816D817E81F7
:100750008F8198850E9417030E946001C090140346
:10076000D0901503E0901603F0901703A7019601AF
:1007700069817A818B819C810E94B5120E94271326
:100780004B015C01A70196016D817E818F81988567
:100790000E94B5120E9427136B017C0180E891E052
:1007A0000E941203092C000CAA08BB08C501B40161
:1007B0000E94AF018BE591E00E9412030D2C000C0A
:1007C000EE08FF08C701B6010E94AF010E94600158
:1007D00088E891E00E944B038091280390912903BF
:1007E000A0912A03B0912B0388159905AA05BB0592
:1007F00061F08092280390922903A0922A03B0927C
:100800002B0388E193E00E947B0A80916C03909116
:100810006D03A0916E03B0916F038C159D05AE051D
:10082000BF0561F0C0926C03D0926D03E0926E033D
:10083000F0926F038CE593E00E947B0A89E991E0D6
:100840000E944B0388E193E00E94CF0C8CE593E07B
:100850000E94CF0C83EA91E00E944B038091280311
:1008600090912903A0912A03B0912B034091240376
:100870005091250360912603709127038C019D01FF
:10088000041B150B260B370B80916C0390916D03A5
:10089000A0916E03B0916F03C0906803D09069037C
:1008A000E0906A03F0906B038C199D09AE09BF09B3
:1008B000800F911FA21FB31F181619061A061B06D8
:1008C0004CF488E193E00E94CF0C8CE593E00E9409
:1008D000CF0CC4CF81EB91E060960FB6F894DEBFE9
:1008E0000FBECDBFDF91CF911F910F91FF90EF9081
:1008F000DF90CF90BF90AF909F908F900C944B0360
:1009000090E0FC01E450FF4F2491FC01E851FF4FBF
:100910008491882399F090E0880F991FFC01E2529E
:10092000FF4FA591B491FC01EC52FF4F859194913A
:100930008FB7F894EC91E22BEC938FBF089590E081
:10094000FC01E054FF4F3491FC01E450FF4F24912F
:10095000FC01E851FF4FE491EE2309F43BC033233F
:1009600039F1333091F038F43130A9F0323001F5FB
:1009700084B58F7D12C0373091F03830A1F034301B
:10098000B9F4809180008F7D03C0809180008F77C3
:10099000809380000DC084B58F7784BD09C080919D
:1009A000B0008F7703C08091B0008F7D8093B0003E
:1009B000F0E0EE0FFF1FEC52FF4FA591B4918FB7FF
:1009C000F894EC91611103C020952E2301C02E2BC9
:1009D0002C938FBF08951F920F920FB60F92112480
:1009E0002F933F938F939F93AF93BF938091EC028C
:1009F0009091ED02A091EE02B091EF023091EB02E6
:100A000023E0230F2D3720F40196A11DB11D05C051
:100A100026E8230F0296A11DB11D2093EB028093BF
:100A2000EC029093ED02A093EE02B093EF0280915E
:100A30004A0290914B02A0914C02B0914D02019656
:100A4000A11DB11D80934A0290934B02A0934C02CA
:100A5000B0934D02BF91AF919F918F913F912F9194
:100A60000F900FBE0F901F9018951F920F920FB608
:100A70000F9211242F933F934F935F936F937F9324
:100A80008F939F93AF93BF93EF93FF938EE492E086
:100A90000E94F109FF91EF91BF91AF919F918F91CA
:100AA0007F916F915F914F913F912F910F900FBE6A
:100AB0000F901F901895089580E090E00895FC0134
:100AC000538D448D252F30E0842F90E0821B930BB3
:100AD000541710F0CF96089501970895FC01918D59
:100AE000828D981761F0828DDF01A80FB11D5D9690
:100AF0008C91928D9F5F9F73928F90E008958FEFFE
:100B00009FEF0895FC01918D828D981731F0828DB1
:100B1000E80FF11D858D90E008958FEF9FEF089508
:100B2000FC01918D228D892F90E0805C9F4F821B6C
:100B300091098F739927089580E090E0892B29F01F
:100B40000E94E50081110C9400000895CF93DF937B
:100B50004770552766277727FA013197EC01A8815E
:100B6000B981E730F10520F4EC5CFF4F0C9441169D
:100B70001496ED91FC91159761E029C01496ED91C2
:100B8000FC91159765E023C01496ED91FC911597A3
:100B900064E01DC01496ED91FC91159766E017C0B6
:100BA0001496ED91FC91159762E011C01496ED91A9
:100BB000FC9115976AE00BC01496ED91FC91159786
:100BC00068E005C01496ED91FC91159769E0DF91FE
:100BD000CF910994CF93DF93EC01CB01BA0126E0CA
:100BE00030E040E050E00E9422166230710581053D
:100BF000910559F18CF46115710581059105F1F0AC
:100C00006130710581059105C1F5E881F9810480A4
:100C1000F581E02D65E02DC06430710581059105F9
:100C200011F1D4F0653071058105910531F5E88148
:100C3000F9810480F581E02D66E01BC0E881F9812F
:100C40000480F581E02D64E014C0E881F98104801E
:100C5000F581E02D61E00DC0E881F9810480F58126
:100C6000E02D63E006C0E881F9810480F581E02D84
:100C700062E0CE01DF91CF910994DF91CF91089589
:100C80004370552766277727DC01ED91FC9104809E
:100C9000F581E02D423051056105710571F0433059
:100CA00051056105710559F0413051056105710526
:100CB00011F065E005C066E003C06AE001C069E0CC
:100CC0000994CF93DF93EC01CB01BA0123E030E02C
:100CD00040E050E00E9422166130710581059105C7
:100CE00081F0623071058105910591F0672B682BC9
:100CF000692BC1F4E881F9810480F581E02D64E07D
:100D00000DC0E881F9810480F581E02D61E006C025
:100D1000E881F9810480F581E02D62E0CE01DF9168
:100D2000CF910994DF91CF9108954370552766279D
:100D30007727DC01ED91FC910480F581E02D4230B4
:100D400051056105710571F043305105610571056B
:100D500059F0413051056105710511F062E005C09F
:100D600063E003C061E001C060E00994CF93DF93CA
:100D7000EC01E881F9810480F581E02D8A818111FF
:100D800002C060E001C062E0CE010995E881F9810E
:100D90000480F581E02D8A81811102C061E001C0EB
:100DA00063E0CE0109958CA59DA58230910538F0B0
:100DB000880F991F880F991F05970197F1F7E88110
:100DC000F9810480F581E02D8A81811102C060E003
:100DD00001C062E0CE01DF91CF910994CF93DF9300
:100DE000EC0120E030E0A9016C897D898E899F8922
:100DF0000E940F1418161CF4E8A9F9A902C0EAA968
:100E0000FBA9DF91CF9109940F931F93DC011396F7
:100E1000EC910E2F10E009301105C0F5F801E55CEA
:100E2000FF4F0C944116DC01ED91FC910084F1859B
:100E3000E02D29C0DC01ED91FC910284F385E02DC9
:100E400022C0DC01ED91FC910484F585E02D1BC0EE
:100E5000DC01ED91FC910684F785E02D14C0DC01E6
:100E6000ED91FC910088F189E02D0DC0DC01ED9140
:100E7000FC910288F389E02D06C0DC01ED91FC9124
:100E80000488F589E02D1F910F9109941F910F910E
:100E90000895CF93DF93FC012381222329F1EC01F4
:100EA00084810E9480048D810E9480048B81843023
:100EB00011F0883029F48E810E9480048F8105C052
:100EC000833011F0863019F48E810E9480048FA542
:100ED0008F3F51F00E9480046EA581E068278FA5A6
:100EE000DF91CF910C949F04DF91CF910895CF9320
:100EF000DF93FC0123812223A1F0EC010190F0811A
:100F0000E02D0480F581E02D60E009958FA58F3FED
:100F100041F00E9480046EA58FA5DF91CF910C94C3
:100F20009F04DF91CF910895CF92DF92EF92FF92CD
:100F30000F931F93CF93DF93FC012381243041F063
:100F4000283031F0233031F0263021F012E003C098
:100F500014E001C013E0EC012896E12CF12CC62E20
:100F6000D12C01E0C6010E2C02C0959587950A94FC
:100F7000E2F7688180FD6027FE01349780810E943E
:100F80009F04FFEFEF1AFF0A2196E11658F3DF9155
:100F9000CF911F910F91FF90EF90DF90CF90089528
:100FA0002F923F924F925F926F927F928F929F9279
:100FB000AF92BF92CF92DF92EF92FF920F931F9367
:100FC000CF93DF93CDB7DEB7A0970FB6F894DEBF0F
:100FD0000FBECDBF1C01E982FA820B831C832D83D7
:100FE0003E834F83588789819A81AB81BC818987F1
:100FF0009A87AB87BC878D819E81AF81B885898BAD
:101000009A8BAB8BBC8B8DA99EA9AFA9B8AD8D8BEC
:101010009E8BAF8BB88F89AD9AADABADBCAD8D8FCC
:101020009E8FAF8FB8A382ED91E00E944B032D8974
:101030003E894F89588D69857A858B859C850E946C
:101040004312698F7A8F8B8F9C8F2D8D3E8D4F8DA4
:1010500058A169897A898B899C890E9443122B0146
:101060003C01298D3A8D4B8D5C8DCA01B9010E94DE
:101070001414698F7A8F8B8F9C8FA3019201C30107
:10108000B2010E9414149B01AC01698D7A8D8B8D85
:101090009C8D0E9444120E9487142B013C0189EE12
:1010A00091E00E941203C301B2010E940503219640
:1010B0002CAD3DAD4EAD5FAD2197C601B5010E948F
:1010C00044129B01AC01C301B2010E940F14181617
:1010D0004CF480E1E0E2F1E0D10101900D928A95BB
:1010E000E1F733C1A6019501C601B5010E941414B0
:1010F0006B017C0121962CAD3DAD4EAD5FAD2197CE
:10110000CA01B9010E9414149B01AC01C701B601C8
:101110000E9443124B015C01A3019201C301B20181
:101120000E9414149B01AC01C501B4010E94441239
:101130004B015C01A3019201C301B2010E94441260
:101140009B01AC01C501B4010E94B5124B015C01C9
:101150008EEE91E00E941203C501B4010E940503C6
:10116000A5019401C501B4010E9414149B01AC01B6
:10117000C701B6010E9443120E9487146D877E87C3
:101180008F87988B83EF91E00E9412036D857E8597
:101190008F8598890E94050329853A854B855C8552
:1011A0006D897E898F89988D0E9443126D8B7E8B0D
:1011B0008F8B988F9B01AC01C501B4010E94141460
:1011C000A30192010E94B5129B01AC0169857A8549
:1011D0008B859C850E94441269877A878B879C87C0
:1011E00029893A894B895C896D8D7E8D8F8D98A177
:1011F0000E9443126B017C019B01AC01C501B4014B
:101200000E941414A30192010E94B5129B01AC012B
:1012100069897A898B899C890E9444124B015C01FF
:1012200088EF91E00E94120369857A858B859C8501
:101230000E9405038FEF91E00E941203C501B401E3
:101240000E940503A70196016D857E858F8598898B
:101250000E941414A30192010E94B5126B017C013B
:101260009B01AC0169857A858B859C850E9444121F
:10127000698B7A8B8B8B9C8BA701960169857A850C
:101280008B859C850E94431269877A878B879C8710
:1012900086E092E00E94120369897A898B899C8991
:1012A0000E9405038FE092E00E94120369857A850F
:1012B0008B859C850E9405032D893E894F89588D19
:1012C0006D857E858F8598890E941414A3019201F3
:1012D0000E94B5122B013C019B01AC01C501B40178
:1012E0000E9444126B017C01A3019201C501B4016B
:1012F0000E9443122B013C0188E192E00E941203FC
:10130000C701B6010E94050381E292E00E94120328
:10131000C301B2010E94050389899A89AB89BC89FE
:10132000F10180839183A283B383C482D582E68254
:10133000F78289859A85AB85BC8580879187A2874E
:10134000B3874486558666867786C101A0960FB618
:10135000F894DEBF0FBECDBFDF91CF911F910F91EB
:10136000FF90EF90DF90CF90BF90AF909F908F90C5
:101370007F906F905F904F903F902F9008951F92B5
:101380000F920FB60F9211242F938F939F93EF9389
:10139000FF93E0915E02F0915F028081E091640230
:1013A000F091650282FD12C09081809167028F5F8B
:1013B0008F7320916802821751F0E0916702F0E08C
:1013C000E25BFD4F958F8093670201C08081FF91A2
:1013D000EF919F918F912F910F900FBE0F901F90C3
:1013E0001895FC01848DDF01A80FB11DA35ABF4FD2
:1013F0002C91848D90E001968F739927848FA68914
:10140000B7892C93A089B1898C9180648C93938D3A
:10141000848D981306C00288F389E02D80818F7D2A
:1014200080830895EF92FF920F931F93CF93DF93E2
:10143000EC0181E0888F9B8D8C8D981305C0E88925
:10144000F989808185FD24C0F62E0B8D10E00F5F99
:101450001F4F0F731127E02E8C8DE8120CC00FB6B2
:1014600007FCFACFE889F989808185FFF5CFCE01A5
:101470000E94F109F1CF8B8DFE01E80FF11DE35AB7
:10148000FF4FF0820B8FEA89FB898081806207C061
:10149000EE89FF896083E889F9898081806480838F
:1014A00081E090E0DF91CF911F910F91FF90EF903D
:1014B0000895CF93DF93EC01888D8823C9F0EA89E2
:1014C000FB89808185FD05C0A889B9898C9186FD3D
:1014D0000FC00FB607FCF5CF808185FFF2CFA8893A
:1014E000B9898C9185FFEDCFCE010E94F109E7CF3C
:1014F000DF91CF9108952F923F924F925F926F921A
:101500007F928F929F92AF92BF92CF92DF92EF9293
:10151000FF920F931F93CF93DF9300D000D0CDB7EE
:10152000DEB71C01FC01C088D188E288F38884857D
:101530009585A685B785C81AD90AEA0AFB0A64897F
:101540007589868997899B01AC010E9414144B010F
:101550005C01F101648D758D868D978D9B01AC01C9
:101560000E9444129B01AC01C501B4010E94B51256
:101570000E942713C114D104E104F104A1F46230E4
:101580007105810591050CF07CC0F10114A215A232
:1015900016A217A2148A158A168A178A14AA15AADF
:1015A00016AA17AAFFC0F10104A915A926A937A9EF
:1015B0001C141D041E041F0404F510161106120647
:1015C00013064CF46C157D058E059F055CF5228194
:1015D000211157C027C0011511052105310509F456
:1015E00050C06C157D058E059F050CF04AC0F101B9
:1015F0008281882309F445C039C0101611061206ED
:101600001306FCF40027112798010C191D092E0957
:101610003F09601771078207930724F4F1012281C3
:10162000222379F19B01AC0188279927DC01821BD9
:10163000930BA40BB50BF10184AB95ABA6ABB7AB89
:1016400020C00115110521053105D9F08824992400
:1016500054018C189D08AE08BF08681579058A05E5
:101660009B057CF4F101828181110BC0309520959E
:10167000109501951F4F2F4F3F4F04AB15AB26AB75
:1016800037ABF10184A895A8A6A8B7A88114910446
:10169000A104B10491F480AD91ADA2ADB3AD84AF1E
:1016A00095AFA6AFB7AF81E01C141D041E041F0444
:1016B0000CF080E0F101828341C0F101C4ACD5ACF3
:1016C000E6ACF7ACA7019601C701B6010E9444122F
:1016D0002B013C01C501B4010E945F1320E030E002
:1016E00040E850E40E94141420E030E040E85FE35A
:1016F0000E9444129B01AC01C301B2010E94B512C9
:101700009B01AC01C701B6010E9443127B018C0111
:10171000F101E05CFF4F60807180C280D380930153
:10172000A6010E940F14181614F073018601A70178
:10173000B801F10144AF55AF66AF77AFFFEF8F1A35
:101740009F0AAF0ABF0AF10184AA95AAA6AAB7AA5E
:1017500024AD35AD46AD57ADCA01B90129833A83F1
:101760004B835C830E942E13F10164A375A386A3AF
:1017700097A329813A814B815C8160E074E284E720
:1017800099E40E94B512F101648B758B868B978B5F
:101790002281211107C0DC01CB01B058848B958BCD
:1017A000A68BB78B0F900F900F900F90DF91CF917A
:1017B0001F910F91FF90EF90DF90CF90BF90AF906F
:1017C0009F908F907F906F905F904F903F902F9061
:1017D00008954F925F926F927F928F929F92AF92F5
:1017E000BF92CF92DF92EF92FF92CF93DF93EC0103
:1017F0006A017B0120E030E0A901C701B6010E9427
:10180000B01287FF04C0F7FAF094F7F8F0948C8CCC
:101810009D8CAE8CBF8CA7019601C501B4010E94BE
:10182000B012882309F449C06CA97DA98EA99FA98B
:101830000E945F132B013C01A7019601C501B40171
:101840000E94B5129B01AC01C301B2010E941414A5
:101850000E9427136CAB7DAB8EAB9FABA7019601AB
:1018600060E070E080E090E40E94B5120E9487146E
:1018700026E53EE04DE25FE30E94141420E034E2EE
:1018800044E759E40E94141468AF79AF8AAF9BAF64
:10189000CC8EDD8EEE8EFF8ECE01DF91CF91FF904C
:1018A000EF90DF90CF90BF90AF909F908F907F9000
:1018B0006F905F904F900C947B0ADF91CF91FF90D7
:1018C000EF90DF90CF90BF90AF909F908F907F90E0
:1018D0006F905F904F900895CF92EF920F93CF93B8
:1018E000DF93EC0184E391E0998388836B831C860A
:1018F0001D861E861F86188A198A1A8A1B8A1C8AC8
:101900001D8A1E8A1F8A80E090E0A0E8BFE3888FCE
:10191000998FAA8FBB8F1C8E1D8E1E8E1F8E88A343
:1019200099A3AAA3BBA31CA21DA21EA21FA261E091
:1019300070E07DA76CA73FEF3FA718A619A61AA6CF
:101940001BA64C832D830E83EF821EA61CAA1DAA04
:101950001EAA1FAA18AE19AE1AAE1BAE1CAE1DAE43
:101960001EAE1FAEFE01E05CFF4F80839183A28319
:10197000B3831A82188619861A861B86CC2019F022
:10198000CE010E94490740E050E060E87FE3CE01CD
:10199000DF91CF910F91EF90CF900C94E90BCF9204
:1019A000DF92EF92FF92CF93DF93EC018CA19DA188
:1019B000AEA1BFA1892B8A2B8B2B09F459C03FB74D
:1019C000F89480914A0290914B02A0914C02B09100
:1019D0004D0226B5A89B05C02F3F19F00196A11D09
:1019E000B11D3FBFCC24D82EE92EFA2EC20ED11C39
:1019F000E11CF11C42E0CC0CDD1CEE1CFF1C4A95E6
:101A0000D1F788A599A5AAA5BBA5B701A601481B32
:101A1000590B6A0B7B0B8CA19DA1AEA1BFA14817EE
:101A200059076A077B0720F12A818C859D85AE8541
:101A3000BF85222321F00196A11DB11D03C001978E
:101A4000A109B1098C879D87AE87BF87E881F9819D
:101A50004C855D856E857F850680F781E02DCE0102
:101A60000995C8A6D9A6EAA6FBA6CE010E947B0AC4
:101A700020E030E0A9016C897D898E899F890E94D0
:101A8000B012811110C081E0C888D988EA88FB882B
:101A90004C855D856E857F85C416D506E606F706FE
:101AA00019F480E001C081E0DF91CF91FF90EF90C9
:101AB000DF90CF9008958F929F92AF92BF92CF9276
:101AC000DF92EF92FF920F931F93CF93DF93CDB7E7
:101AD000DEB7E0970FB6F894DEBF0FBECDBF4C0166
:101AE00009A71AA72BA73CA74DA75EA76FA778AB9E
:101AF0008AE292E00E944B03F401A088B188C28878
:101B0000D38887898F9386898F9385898F938489DA
:101B10008F938DB79EB708970FB6F8949EBF0FBEF0
:101B20008DBFADB7BEB7119688E0FE01B9960190A2
:101B30000D928A95E1F7F401E080F1800281138132
:101B40002481358146815781B401CE0141960E949E
:101B5000D007F401A088B188C288D38887898F9381
:101B600086898F9385898F9384898F938DB79EB74C
:101B700008970FB6F8949EBF0FBE8DBFADB7BEB726
:101B8000119688E0FE01B99601900D928A95E1F7D1
:101B9000F401E084F184028513852485358546852A
:101BA0005785B401CE0101960E94D00729893A8950
:101BB0004B895C896D897E898F89988D0E94B512C9
:101BC0000E94C71420E030E040E05FE30E9414145C
:101BD0002BED3FE049E450E40E94B51220E030E0F4
:101BE00044EB53E40E941414162FC72ED82EE92E6E
:101BF000F401208531854285538569857A858B85F9
:101C00009C850E9443129B01AC016D857E858F856A
:101C100098890E94B5120E94C71420E030E040E08D
:101C20005FE30E9414142BED3FE049E450E40E946E
:101C3000B51220E030E044EB53E40E941414962ED9
:101C4000F72E082F892E8AE392E00E94120342E0C9
:101C5000612F7C2D8D2D9E2D0E94270282E492E023
:101C60000E941203692D7F2D802F982D0E9405035D
:101C7000412F5C2D6D2D7E2D49A35AA36BA37CA310
:101C8000492D5F2D602F782D4DA35EA36FA378A7FC
:101C9000212F3AA14BA15CA1692D7EA10FB6F8942A
:101CA000DEBF0FBECDBF8FA198A5E0960FB6F8940A
:101CB000DEBF0FBECDBFDF91CF911F910F91FF907F
:101CC000EF90DF90CF90BF90AF909F908F9008954E
:101CD0002F923F924F925F926F927F928F929F923C
:101CE000AF92BF92CF92DF92EF92FF920F931F932A
:101CF000CF93DF93CDB7DEB7CC54D1090FB6F894AC
:101D0000DEBF0FBECDBFE0EFF2E08EE191E0918348
:101D100080831282138214821582EEE4F2E0138231
:101D2000128248EE53E060E070E04483558366839E
:101D300077832CE031E03183208325EC30E0358758
:101D4000248724EC30E03787268720EC30E0318B85
:101D5000208B21EC30E0338B228B22EC30E0358B72
:101D6000248B26EC30E0378B268B118E128E138E4F
:101D7000148EE6EFF2E09183808312821382148244
:101D80001582CC24C39485E0E82E04E023E042E0F1
:101D900064E088E193E00E946C0C23E042E064E0A0
:101DA0008CE593E00E946C0C9CEFA92E92E0B92E7A
:101DB00080E090E0A5E0B3E4F501848B958BA68BE1
:101DC000B78B808B918BA28BB38B10821182128286
:101DD0001382148215821682178280E090E0A8ECAC
:101DE000B2E480879187A287B3871486158616860A
:101DF000178686E696E6A6E6BFE3808F918FA28FD0
:101E0000B38F28E049E061E0CE0101960E946C0C9E
:101E10008B81F501868F8C81878F8D819E81AF812B
:101E2000B88580A391A3A2A3B3A389859A85AB8526
:101E3000BC8584A395A3A6A3B7A38D859E85AF85F6
:101E4000B88980A791A7A2A7B3A789899A89AB89E6
:101E5000BC8984A795A7A6A7B7A78D899E89AF89B6
:101E6000B88D80AB91ABA2ABB3AB898D9A8DAB8DA6
:101E7000BC8D84AB95ABA6ABB7AB8D8D9E8DAF8D76
:101E8000B8A180AF91AFA2AFB3AF89A19AA1ABA126
:101E9000BCA184AF95AFA6AFB7AF2CE3822E23E0F1
:101EA000922E8DA19EA1AFA1B8A5F401808391834C
:101EB000A283B38389A59AA5ABA5BCA58093400353
:101EC00090934103A0934203B09343038DA59EA535
:101ED00090934503809344038FA58093460388A97C
:101EE0008093470389A99AA9909349038093480353
:101EF0008BA99CA990934B0380934A033CE4632EE7
:101F000033E0732E8DA99EA9AFA9B8ADF3018083EC
:101F10009183A283B38389AD9AADABADBCAD809301
:101F2000500390935103A0935203B093530321960F
:101F30008CAD9DADAEADBFAD219780935403909312
:101F40005503A0935603B093570325968CAD9DADD2
:101F5000AEADBFAD25978093580390935903A093DE
:101F60005A03B0935B0326E047E061E0CE0101969F
:101F70000E946C0C8B8180935E038C8180935F0345
:101F80008D819E81AF81B8858093600390936103BA
:101F9000A0936203B093630389859A85AB85BC8562
:101FA0008093640390936503A0936603B0936703E3
:101FB00048E6C42E43E0D42E8D859E85AF85B88932
:101FC000F60180839183A283B3835CE6E52E53E020
:101FD000F52E89899A89AB89BC89F7018083918321
:101FE000A283B3838D899E89AF89B88DE0E7F3E042
:101FF00080839183A283B383898D9A8DAB8DBC8DB1
:102000008093740390937503A0937603B093770342
:102010008D8D9E8DAF8DB8A18093780390937903B9
:10202000A0937A03B0937B0389A19AA1ABA1BCA131
:1020300080937C0390937D03A0937E03B0937F03F2
:102040008DA19EA1AFA1B8A5E0E8F3E080839183C4
:10205000A283B38389A59AA5ABA5BCA5809384036D
:1020600090938503A0938603B09387038DA59EA5C7
:1020700090938903809388038FA580938A0388A90E
:1020800080938B0389A99AA990938D0380938C03E5
:102090008BA99CA990938F0380938E038DA99EA9F1
:1020A000AFA9B8ADE0E9F3E080839183A283B38365
:1020B00089AD9AADABADBCAD80939403909395037D
:1020C000A0939603B093970321968CAD9DADAEADD2
:1020D000BFAD21978093980390939903A0939A039F
:1020E000B0939B0325968CAD9DADAEADBFAD25974E
:1020F00080939C0390939D03A0939E03B0939F03B2
:1021000088E193E00E94EF008CE593E00E94EF00ED
:1021100040E050E068E474E488E193E00E94E90B59
:1021200040E050E068E474E48CE593E00E94E90B41
:1021300029961CAE1DAE1EAE1FAE299780E090E022
:10214000A8E4B3E42D968CAF9DAFAEAFBFAF2D9793
:1021500000E027961FAD279728962FAD2897299640
:102160003FAD299740E02B965FAD2B972C966FAD36
:102170002C972D967FAD2D97C5010E945B0D29836D
:102180003A834B835C836D837E838F839887F501CD
:10219000208C318C428C538CA201910169817A810F
:1021A0008B819C810E94B5120E942713F50160A7C4
:1021B00071A782A793A764A775A786A797A7F3011E
:1021C0001082118212821382F40110821182128213
:1021D0001382F50110AA11AA12AA13AAA201910151
:1021E0006D817E818F8198850E94B5120E94271390
:1021F000F6016083718382839383F7016083718327
:1022000082839383E0E9F3E01082118212821382C9
:10221000E0E8F3E01082118212821382E0E7F3E03B
:102220001082118212821382C45BDF4F0FB6F894C2
:10223000DEBF0FBECDBFDF91CF911F910F91FF90F9
:10224000EF90DF90CF90BF90AF909F908F907F9056
:102250006F905F904F903F902F900895CF93DF93B2
:10226000CDB7DEB7A0970FB6F894DEBF0FBECDBFD7
:10227000789484B5826084BD84B5816084BD85B561
:10228000826085BD85B5816085BD80916E0081606D
:1022900080936E0010928100809181008260809313
:1022A0008100809181008160809381008091800015
:1022B0008160809380008091B10084608093B10040
:1022C0008091B00081608093B00080917A0084603A
:1022D00080937A0080917A00826080937A00809166
:1022E0007A00816080937A0080917A008068809380
:1022F0007A001092C100E0915E02F0915F0282E0EC
:102300008083E0915A02F0915B021082E0915C02BE
:10231000F0915D0280E1808310926602E09162029A
:10232000F091630286E08083E0916002F0916102A7
:10233000808180618083E0916002F0916102808100
:1023400088608083E0916002F09161028081806802
:102350008083E0916002F091610280818F7D8083B3
:102360008BEA91E00E944B0310E0D12C88E4E82E28
:1023700093E4F92E08E08EE492E00E949005892B08
:1023800029F486EB91E00E941203F5CF8EE492E0EF
:102390000E946E058EEB91E00E941203609124036F
:1023A0007091250380912603909127030E94AF012D
:1023B0008BE591E00E941203609124037091250344
:1023C00080912603909127030E94AF010E94600133
:1023D00089EC91E00E94120319821A821B821C82EE
:1023E000612F812F9D2DD7018D839E83AF83B88769
:1023F00020E03A814B815C817E818F8198850E94AB
:10240000170319861A861B861C86612F812F9D2D26
:10241000D7018D879E87AF87B88B20E03A854B85A3
:102420005C857E858F8598890E945A0389EC91E0AE
:102430000E941203E0E0F1E0DE015196802F01904E
:102440000D928A95E1F729893A894B895C896D89D2
:102450007E898F89988D0E941703E0E0F1E0DE010C
:102460005996802F01900D928A95E1F7298D3A8D2A
:102470004B8D5C8D6D8D7E8D8F8D98A10E945A0342
:102480000E949C0578CF5058BB27AA270E945B1258
:102490000C94D5130E94C71338F00E94CE1320F07D
:1024A00039F49F3F19F426F40C94C4130EF4E0950C
:1024B000E7FB0C94BE13E92F0E94E61358F3BA17FA
:1024C000620773078407950720F079F4A6F50C944A
:1024D00008140EF4E0950B2EBA2FA02D0B01B901B4
:1024E00090010C01CA01A0011124FF27591B99F08A
:1024F000593F50F4503E68F11A16F040A22F232F96
:10250000342F4427585FF3CF469537952795A795E5
:10251000F0405395C9F77EF41F16BA0B620B730B8C
:10252000840BBAF09150A1F0FF0FBB1F661F771FFD
:10253000881FC2F70EC0BA0F621F731F841F48F4B2
:10254000879577956795B795F7959E3F08F0B0CF3B
:102550009395880F08F09927EE0F97958795089522
:102560000E949A1308F481E008950E94C9120C9405
:10257000D5130E94CE1358F00E94C71340F029F4DF
:102580005F3F29F00C94BE1351110C9409140C9464
:10259000C4130E94E61368F39923B1F3552391F312
:1025A000951B550BBB27AA2762177307840738F0C2
:1025B0009F5F5F4F220F331F441FAA1FA9F335D01F
:1025C0000E2E3AF0E0E832D091505040E695001CD3
:1025D000CAF72BD0FE2F29D0660F771F881FBB1F8D
:1025E000261737074807AB07B0E809F0BB0B802D6B
:1025F000BF01FF2793585F4F3AF09E3F510578F097
:102600000C94BE130C9409145F3FE4F3983ED4F38A
:10261000869577956795B795F7959F5FC9F7880F6A
:10262000911D9695879597F90895E1E0660F771FBC
:10263000881FBB1F621773078407BA0720F0621B4D
:10264000730B840BBA0BEE1F88F7E09508950E9478
:102650002E136894B1110C94091408950E94EE137E
:1026600088F09F5798F0B92F9927B751B0F0E1F053
:10267000660F771F881F991F1AF0BA95C9F714C003
:10268000B13091F00E940814B1E008950C94081440
:10269000672F782F8827B85F39F0B93FCCF386953C
:1026A00077956795B395D9F73EF490958095709599
:1026B00061957F4F8F4F9F4F0895E89409C097FB16
:1026C0003EF490958095709561957F4F8F4F9F4F09
:1026D0009923A9F0F92F96E9BB279395F69587954D
:1026E00077956795B795F111F8CFFAF4BB0F11F410
:1026F00060FF1BC06F5F7F4F8F4F9F4F16C08823B7
:1027000011F096E911C0772321F09EE8872F762FEC
:1027100005C0662371F096E8862F70E060E02AF02D
:102720009A95660F771F881FDAF7880F9695879519
:1027300097F90895990F0008550FAA0BE0E8FEEFEE
:1027400016161706E807F907C0F012161306E40775
:10275000F50798F0621B730B840B950B39F40A266E
:1027600061F0232B242B252B21F408950A2609F44C
:10277000A140A6958FEF811D811D089597F99F6750
:1027800080E870E060E008959FEF80EC08950024F9
:102790000A941616170618060906089500240A94C6
:1027A00012161306140605060895092E0394000C4C
:1027B00011F4882352F0BB0F40F4BF2B11F460FFDB
:1027C00004C06F5F7F4F8F4F9F4F089557FD905804
:1027D000440F551F59F05F3F71F04795880F97FBE5
:1027E000991F61F09F3F79F087950895121613069F
:1027F0001406551FF2CF4695F1DF08C016161706CE
:102800001806991FF1CF8695710561050894089502
:10281000E894BB2766277727CB0197F908950E9494
:102820009A1308F48FEF08950E9427140C94D5137F
:102830000E94C71338F00E94CE1320F0952311F0A8
:102840000C94BE130C94C41311240C9409140E940C
:10285000E61370F3959FC1F3950F50E0551F629FEB
:10286000F001729FBB27F00DB11D639FAA27F00DE9
:10287000B11DAA1F649F6627B00DA11D661F829F10
:102880002227B00DA11D621F739FB00DA11D621FF5
:10289000839FA00D611D221F749F3327A00D611D12
:1028A000231F849F600D211D822F762F6A2F1124F4
:1028B0009F5750409AF0F1F088234AF0EE0FFF1F27
:1028C000BB1F661F771F881F91505040A9F79E3F7E
:1028D000510580F00C94BE130C9409145F3FE4F38F
:1028E000983ED4F3869577956795B795F795E795D4
:1028F0009F5FC1F7FE2B880F911D9695879597F9DD
:10290000089519F416F40C94C4130C943A150E940B
:10291000EE13B8F39923C9F3B6F39F57550B87FF0E
:102920000E9448150024A0E640EA90018058569580
:10293000979528F4805C660F771F881F20F0261774
:102940003707480730F4621B730B840B20293129A9
:102950004A2BA69517940794202531254A2758F726
:10296000660F771F881F20F026173707480730F4B7
:10297000620B730B840B200D311D411DA09581F757
:10298000B901842F9158880F9695879508959F9344
:102990009F77FEE380319F0728F4E8E8F0E00E948B
:1029A000761525C0906841E050E00E9496150E947F
:1029B00008159F938F937F936F9320E030E040E85A
:1029C0005FE30E9444122F913F914F915F919F933B
:1029D0008F937F936F9360E070E080E89FE30E94A5
:1029E00043122F913F914F915F910E94B5120F902A
:1029F00007FC905808950E949A13880B990B08952C
:102A000029F416F00C94BE130C9408140C94C413FF
:102A10000E94EE13A8F39638A0F707F80F92E894F7
:102A20002BE33AEA48EB5FE70E942A140F920F92D9
:102A30000F924DB75EB70F920E94CC15E7E9F0E018
:102A40000E944F154F915F91EF91FF91E595EE1F19
:102A5000FF1F49F0FE57E0684427EE0F441FFA9528
:102A6000E1F74195550B0E9496150F9007FE0C94C7
:102A70008A1508959F3F31F0915020F487957795FE
:102A80006795B795880F911D9695879597F9089545
:102A900091505040660F771F881FD2F70895DF933B
:102AA000CF931F930F93FF92EF92DF927B018C01E4
:102AB000689406C0DA2EEF010E942714FE01E89404
:102AC000A5912591359145915591A6F3EF010E946D
:102AD0005B12FE019701A801DA9469F7DF90EF908D
:102AE000FF900F911F91CF91DF9108959F938F9346
:102AF0007F936F93FF93EF939B01AC010E9414149B
:102B0000EF91FF910E944F152F913F914F915F914F
:102B10000C9414149B01AC0160E070E080E89FE32A
:102B20000C94B5120C94BE130C943A150E94EE133B
:102B3000D8F39923C9F3940F511DA3F3915050403A
:102B400094F059F0882332F0660F771F881F915058
:102B50005040C1F79E3F51052CF7880F911D969567
:102B6000879597F908955F3FACF0983E9CF0BB279E
:102B7000869577956795B79508F4B1609395C1F7F9
:102B8000BB0F58F711F460FFE8CF6F5F7F4F8F4F97
:102B90009F4FE3CF0C940914FA01DC01AA0FBB1F6D
:102BA0009B01AC01BF5728F42227332744275078D4
:102BB00020C0B75190F4AB2F002446953795279548
:102BC000011CA395D2F3002071F0220F331F441F84
:102BD000B395DAF30ED00C94431261307105A0E87E
:102BE0008A07B94630F49B01AC016627772788270E
:102BF0009078309621F02083318342835383089567
:102C0000A1E21A2EAA1BBB1BFD010DC0AA1FBB1FF0
:102C1000EE1FFF1FA217B307E407F50720F0A21B62
:102C2000B30BE40BF50B661F771F881F991F1A94CF
:102C300069F760957095809590959B01AC01BD01F9
:102C4000CF010895052E97FB1EF400940E943916BB
:102C500057FD07D00E94001607FC03D04EF40C94D9
:102C6000391650954095309521953F4F4F4F5F4F06
:102C7000089590958095709561957F4F8F4F9F4FE8
:102C80000895EE0FFF1F0590F491E02D099481E067
:0C2C900090E0F8940C944C16F894FFCFE0
:102C9C00000096420000484300000000120ABA00EF
:102CAC005F05590A90056E05820500000000E101E0
:102CBC00000080BF000080BF000080BF000080BF0C
:102CCC00000000007707490794070407EE06B606D4
:102CDC00950661064006EA05A6050D0A006E616EB2
:102CEC0000696E66006F7666007B002C20007D000C
:102CFC007374617274696E67206D6F7665546F00C2
:102D0C00706F696E743A2000616E676C65733A007F
:102D1C0073746570733A200073746570732063610B
:102D2C006C63756C61746564007374657073207387
:102D3C0065740072756E6E696E670073657475707C
:102D4C0020646F6E6500696E206C6F6F7000737419
:102D5C00617274706F733A20006D6F766520746FBA
:102D6C00200053746172742043616C63696E7465E6
:102D7C0072736563747328290064203D2000612000
:102D8C003D200068203D2000432E78203D2000434C
:102D9C002E79203D2000522E612E78203D200052AD
:102DAC002E622E78203D2000522E612E79203D205F
:102DBC0000522E622E79203D2000656E74657220C3
:102DCC00436F6E7665727428290072657478203DA5
:0A2DDC00200072657479203D20008C
:00000001FF
