:100000000C9484000C94AC000C94AC000C94AC00E8
:100010000C94AC000C94AC000C94AC000C94AC00B0
:100020000C94AC000C94AC000C94AC000C94AC00A0
:100030000C94AC000C94AC000C94AC000C94AC0090
:100040000C947C040C94AC000C94EC040C94C6044A
:100050000C94AC000C94AC000C94AC000C94AC0070
:100060000C94AC000C94AC00400546054C055205C0
:1000700058055E05640595069C06A306AA06B1060A
:10008000C806B806C806BF06084AD73B3BCE016E75
:1000900084BCBFFDC12F3D6C74319ABD56833DDADF
:1000A0003D00C77F11BED9E4BB4C3E916BAAAABEEE
:1000B000000000803F000000000800020100000373
:1000C0000407000000000000000000000000250000
:1000D00028002B0000000000240027002A00040450
:1000E00004040404040402020202020203030303E0
:1000F00003030102040810204080010204081020BC
:10010000010204081020480E11241FBECFEFD8E0D2
:10011000DEBFCDBF12E0A0E0B1E0E6E0FDE202C04C
:1001200005900D92AA31B107D9F722E0AAE1B2E019
:1001300001C01D92A23DB207E1F710E0C4E8D0E093
:1001400004C02197FE010E944915C338D107C9F7A1
:100150000E94870E0C9481160C940000DC01ED9136
:10016000FC910190F081E02D0994CF92DF92EF9203
:10017000FF920F931F93CF93DF936C017A018B0152
:10018000C0E0D0E0CE15DF0589F0D8016D918D017A
:10019000D601ED91FC910190F081E02DC601099509
:1001A000892B11F47E0102C02196ECCFC701DF91AB
:1001B000CF911F910F91FF90EF90DF90CF90089516
:1001C000089580E090E00895FC01538D448D252F23
:1001D00030E0842F90E0821B930B541710F0CF96E1
:1001E000089501970895FC01918D828D981761F013
:1001F000828DDF01A80FB11D5D968C91928D9F5F5E
:100200009F73928F90E008958FEF9FEF0895FC0108
:10021000918D828D981731F0828DE80FF11D858DBB
:1002200090E008958FEF9FEF0895FC01918D228D4E
:10023000892F90E0805C9F4F821B91098F739927D3
:1002400008958AE192E00E94150121E0892B09F4CA
:1002500020E0822F0895FC01848DDF01A80FB11DDD
:10026000A35ABF4F2C91848D90E001968F739927EC
:10027000848FA689B7892C93A089B1898C918064D9
:100280008C93938D848D981306C00288F389E02D9A
:1002900080818F7D80830895EF92FF920F931F934B
:1002A000CF93DF93EC0181E0888F9B8D8C8D981329
:1002B00005C0E889F989808185FD24C0F62E0B8D63
:1002C00010E00F5F1F4F0F731127E02E8C8DE81287
:1002D0000CC00FB607FCFACFE889F989808185FF49
:1002E000F5CFCE010E942B01F1CF8B8DFE01E80FDF
:1002F000F11DE35AFF4FF0820B8FEA89FB89808161
:10030000806207C0EE89FF896083E889F98980816E
:100310008064808381E090E0DF91CF911F910F9105
:10032000FF90EF900895CF93DF93EC01888D8823A1
:10033000C9F0EA89FB89808185FD05C0A889B98952
:100340008C9186FD0FC00FB607FCF5CF808185FF2D
:10035000F2CFA889B9898C9185FFEDCFCE010E949B
:100360002B01E7CFDF91CF910895CF92DF92EF92EB
:10037000FF92CF93DF93EC0120E030E04AE754E4B2
:10038000688D798D8A8D9B8D0E94A412882309F433
:100390003FC080E090E0AAE7B4E4888F998FAA8FED
:1003A000BB8FFE01E05CFF4F80839183A283B38308
:1003B0008CA99DA9AEA9BFA9181619061A061B0675
:1003C0003CF56C897D898E899F899B01AC010E94D7
:1003D00037146B017C016C8D7D8D8E8D9F8D9B0103
:1003E000AC010E9409129B01AC01C701B6010E9439
:1003F000A9120E941B136CAB7DAB8EAB9FABCE01E1
:10040000DF91CF91FF90EF90DF90CF900C940F0988
:10041000DF91CF91FF90EF90DF90CF9008950E94F1
:100420007C166115710579F0FB0101900020E9F758
:100430003197AF01461B570BDC01ED91FC91028017
:10044000F381E02D099480E090E008954F925F924F
:100450006F927F92EF92FF920F931F93CF93DF9350
:10046000CDB7DEB7A1970FB6F894DEBF0FBECDBFF4
:100470007C01FA01CB0119A2223008F42AE08E0196
:100480000F5D1F4F422E512C612C712CBF01A30117
:1004900092010E940815F901CA01015011096A3040
:1004A00014F4605D01C0695CD8016C93232B242B8C
:1004B000252B61F7B801C7010E941102A1960FB662
:1004C000F894DEBF0FBECDBFDF91CF911F910F918A
:1004D000FF90EF907F906F905F904F9008958F9274
:1004E0009F92AF92BF92CF92DF92EF92FF920F93C3
:1004F0001F93CF93DF937C018B016C0182E0C80EC8
:10050000D11C4701E5E08E0E911CC0E0D0E0F60161
:1005100041916F0150E060E070E02AE0C8010E9464
:1005200026025C016EE2C8010E94AE008A0D9B1D8E
:10053000C80FD91FC814D90451F7F701458150E0FD
:1005400060E070E02AE0C8010E9426028C0F9D1F27
:10055000DF91CF911F910F91FF90EF90DF90CF909F
:10056000BF90AF909F908F90089560E571E08AE111
:1005700092E00C9411024F925F926F927F928F9251
:100580009F92AF92BF92CF92DF92EF92FF926B0158
:100590007C01B42E9B01AC010E94EE14882319F05B
:1005A00063E571E027C026013701E89477F82FEF63
:1005B0003FEF4FE75FE7C301B2010E94EE148111E4
:1005C0000DC02FEF3FEF4FE75FE7C301B2010E947D
:1005D000A41218161CF467E571E00CC02FEF3FEF72
:1005E0004FE75FE4C701B6010E942A14181694F47D
:1005F0006BE571E08AE192E0FF90EF90DF90CF90A1
:10060000BF90AF909F908F907F906F905F904F9032
:100610000C9411022FEF3FEF4FE75FECC701B601DB
:100620000E94A41287FDE4CF20E030E0A901C701B9
:10063000B6010E94A41287FF0BC06DE28AE192E02E
:100640000E94AE004C01F7FAF094F7F8F09402C063
:10065000812C912CA12C60E070E080E09FE3AB1432
:1006600041F020E030E040E251E40E94A912A3945E
:10067000F6CF9B01AC01C701B6010E9409122B0104
:100680003C010E9422136B017C010E9451139B01CB
:10069000AC01C301B2010E9408122B013C012AE007
:1006A000B701A6018AE192E00E9426027C01E80CD3
:1006B000F91CBB2039F06EE28AE192E00E94AE00A4
:1006C000E80EF91EDB2CDD2031F120E030E040E2C5
:1006D00051E4C301B2010E9437142B013C010E9476
:1006E00022134B01A12CB12C2AE0B501A4018AE10F
:1006F00092E00E942602E80EF91EC501B4010E9494
:1007000051139B01AC01C301B2010E9408122B01DD
:100710003C01DA94D8CFC701FF90EF90DF90CF90E3
:10072000BF90AF909F908F907F906F905F904F9011
:100730000895CF93DF9343E00E94BB02EC010E9437
:10074000B5028C0F9D1FDF91CF910895BC018AE106
:1007500092E00C94110290E0FC01EE50FF4F2491C6
:10076000FC01E252FF4F8491882399F090E0880FBA
:10077000991FFC01EC52FF4FA591B491FC01E65387
:10078000FF4F859194918FB7F894EC91E22BEC9305
:100790008FBF0895CF93DF93BC018AE192E00E945E
:1007A0001102EC010E94B5028C0F9D1FDF91CF91C9
:1007B0000895CF92DF92EF92FF92CF93DF93AB0138
:1007C000BC0177FF1DC06A017B016DE28AE192E006
:1007D0000E94AE00EC0144275527BA014C195D096F
:1007E0006E097F092AE08AE192E00E9426028C0FBE
:1007F0009D1FDF91CF91FF90EF90DF90CF900895F4
:100800002AE08AE192E0DF91CF91FF90EF90DF90B4
:10081000CF900C94260290E0FC01EA54FF4F3491F3
:10082000FC01EE50FF4F2491FC01E252FF4FE49196
:10083000EE2309F43BC0332339F1333091F038F41F
:100840003130A9F0323001F584B58F7D12C03730D8
:1008500091F03830A1F03430B9F4809180008F7D70
:1008600003C0809180008F77809380000DC084B595
:100870008F7784BD09C08091B0008F7703C08091CD
:10088000B0008F7D8093B000F0E0EE0FFF1FE653C5
:10089000FF4FA591B4918FB7F894EC91611103C00B
:1008A00020952E2301C02E2B2C938FBF08953FB788
:1008B000F8948091BE029091BF02A091C002B091C5
:1008C000C10226B5A89B05C02F3F19F00196A11DB6
:1008D000B11D3FBFBA2FA92F982F8827820F911DD6
:1008E000A11DB11DBC01CD0142E0660F771F881F1D
:1008F000991F4A95D1F708951F920F920FB60F9244
:1009000011242F933F938F939F93AF93BF93809125
:10091000BA029091BB02A091BC02B091BD0230918D
:10092000B90223E0230F2D3720F40196A11DB11D3C
:1009300005C026E8230F0296A11DB11D2093B90220
:100940008093BA029093BB02A093BC02B093BD0205
:100950008091BE029091BF02A091C002B091C102ED
:100960000196A11DB11D8093BE029093BF02A0937A
:10097000C002B093C102BF91AF919F918F913F91FF
:100980002F910F900FBE0F901F9018951F920F92EE
:100990000FB60F9211242F933F934F935F936F9352
:1009A0007F938F939F93AF93BF93EF93FF938AE1CE
:1009B00092E00E942B01FF91EF91BF91AF919F9127
:1009C0008F917F916F915F914F913F912F910F90F8
:1009D0000FBE0F901F9018951F920F920FB60F9297
:1009E00011242F938F939F93EF93FF93E0912A020B
:1009F000F0912B028081E0913002F091310282FD72
:100A000012C09081809133028F5F8F7320913402E6
:100A1000821751F0E0913302F0E0E65EFD4F958FD2
:100A20008093330201C08081FF91EF919F918F915C
:100A30002F910F900FBE0F901F90189580E090E0BF
:100A4000892B29F00E94210181110C940000089546
:100A5000CF93DF934770552766277727FA013197A1
:100A6000EC01A881B981E730F10520F4EC5CFF4F7F
:100A70000C9449151496ED91FC91159761E029C0ED
:100A80001496ED91FC91159765E023C01496ED91B5
:100A9000FC91159764E01DC01496ED91FC9115979B
:100AA00066E017C01496ED91FC91159762E011C0B5
:100AB0001496ED91FC9115976AE00BC01496ED9198
:100AC000FC91159768E005C01496ED91FC9115977F
:100AD00069E0DF91CF910994CF93DF93EC01CB01D3
:100AE000BA0126E030E040E050E00E942A15623072
:100AF00071058105910559F18CF461157105810528
:100B00009105F1F06130710581059105C1F5E8812C
:100B1000F9810480F581E02D65E02DC06430710518
:100B20008105910511F1D4F06530710581059105BC
:100B300031F5E881F9810480F581E02D66E01BC084
:100B4000E881F9810480F581E02D64E014C0E8813A
:100B5000F9810480F581E02D61E00DC0E881F98123
:100B60000480F581E02D63E006C0E881F98104800E
:100B7000F581E02D62E0CE01DF91CF910994DF9104
:100B8000CF9108954370552766277727DC01ED91B3
:100B9000FC910480F581E02D42305105610571051D
:100BA00071F0433051056105710559F0413051052F
:100BB0006105710511F065E005C066E003C06AE0FB
:100BC00001C069E00994CF93DF93EC01CB01BA0136
:100BD00023E030E040E050E00E942A1561307105CA
:100BE0008105910581F0623071058105910591F0D3
:100BF000672B682B692BC1F4E881F9810480F581AA
:100C0000E02D64E00DC0E881F9810480F581E02DDC
:100C100061E006C0E881F9810480F581E02D62E0A1
:100C2000CE01DF91CF910994DF91CF910895437068
:100C3000552766277727DC01ED91FC910480F5812B
:100C4000E02D423051056105710571F043305105C9
:100C50006105710559F0413051056105710511F0CB
:100C600062E005C063E003C061E001C060E0099498
:100C7000CF93DF93EC01E881F9810480F581E02DC9
:100C80008A81811102C060E001C062E0CE01099555
:100C9000E881F9810480F581E02D8A81811102C00B
:100CA00061E001C063E0CE0109958CA59DA582306D
:100CB000910538F0880F991F880F991F05970197A4
:100CC000F1F7E881F9810480F581E02D8A818111B5
:100CD00002C060E001C062E0CE01DF91CF910994D3
:100CE000CF93DF93EC0120E030E0A9016C897D898E
:100CF0008E899F890E942A1418161CF4E8A9F9A964
:100D000002C0EAA9FBA9DF91CF9109940F931F9329
:100D1000DC011396EC910E2F10E009301105C0F59F
:100D2000F801E55CFF4F0C944915DC01ED91FC9155
:100D30000084F185E02D29C0DC01ED91FC91028455
:100D4000F385E02D22C0DC01ED91FC910484F58552
:100D5000E02D1BC0DC01ED91FC910684F785E02DB0
:100D600014C0DC01ED91FC910088F189E02D0DC0EB
:100D7000DC01ED91FC910288F389E02D06C0DC01D5
:100D8000ED91FC910488F589E02D1F910F91099454
:100D90001F910F910895CF93DF93FC0123812223AC
:100DA00029F1EC0184810E94AB038D810E94AB0389
:100DB0008B81843011F0883029F48E810E94AB033E
:100DC0008F8105C0833011F0863019F48E810E9426
:100DD000AB038FA58F3F51F00E94AB036EA581E05E
:100DE00068278FA5DF91CF910C940B04DF91CF91F1
:100DF0000895CF93DF93FC0123812223A1F0EC011E
:100E00000190F081E02D0480F581E02D60E00995EE
:100E10008FA58F3F41F00E94AB036EA58FA5DF9198
:100E2000CF910C940B04DF91CF910895CF92DF9274
:100E3000EF92FF920F931F93CF93DF93FC012381D7
:100E4000243041F0283031F0233031F0263021F0C9
:100E500012E003C014E001C013E0EC012896E12C7D
:100E6000F12CC62ED12C01E0C6010E2C02C09595A6
:100E700087950A94E2F7688180FD6027FE01349728
:100E800080810E940B04FFEFEF1AFF0A2196E11602
:100E900058F3DF91CF911F910F91FF90EF90DF906A
:100EA000CF9008952F923F924F925F926F927F92D0
:100EB0008F929F92AF92BF92CF92DF92EF92FF926A
:100EC0000F931F93CF93DF93CDB7DEB7A0970FB6E5
:100ED000F894DEBF0FBECDBF1C01E982FA820B83FE
:100EE0001C832D833E834F83588789819A81AB81F0
:100EF000BC8189879A87AB87BC878D819E81AF81B2
:100F0000B8858D879E87AF87B88B8DA99EA9AFA91D
:100F1000B8AD8D8B9E8BAF8BB88F89AD9AADABADD5
:100F2000BCAD8D8F9E8FAF8FB8A32D893E894F8921
:100F3000588D69857A858B859C850E940812698FFA
:100F40007A8F8B8F9C8F2D8D3E8D4F8D58A16D8507
:100F50007E858F8598890E9408122B013C01298D7E
:100F60003A8D4B8D5C8DCA01B9010E943714698F8F
:100F70007A8F8B8F9C8FA3019201C301B2010E94D3
:100F800037149B01AC01698D7A8D8B8D9C8D0E94ED
:100F900009120E94AA142B013C0121962CAD3DADF3
:100FA0004EAD5FAD2197C601B5010E9409129B01AC
:100FB000AC01C301B2010E942A1418164CF480E15E
:100FC000E6E2F1E0D10101900D928A95E1F70DC1C1
:100FD000A6019501C601B5010E9437146B017C0181
:100FE00021962CAD3DAD4EAD5FAD2197CA01B90143
:100FF0000E9437149B01AC01C701B6010E94081280
:101000004B015C01A3019201C301B2010E9437149C
:101010009B01AC01C501B4010E9409124B015C01A6
:10102000A3019201C301B2010E9409129B01AC010C
:10103000C501B4010E94A9124B015C019B01AC01E6
:101040000E9437149B01AC01C701B6010E9408122F
:101050000E94AA14698B7A8B8B8B9C8B29853A858D
:101060004B855C856D897E898F89988D0E940812D9
:101070006D8B7E8B8F8B988F9B01AC01C501B4016A
:101080000E943714A30192010E94A9129B01AC0196
:1010900069857A858B859C850E94091269877A8784
:1010A0008B879C872D853E854F8558896D8D7E8DDC
:1010B0008F8D98A10E9408126B017C019B01AC01ED
:1010C000C501B4010E943714A30192010E94A91224
:1010D0009B01AC016D857E858F8598890E940912E0
:1010E0006D877E878F87988BA701960169897A899A
:1010F0008B899C890E943714A30192010E94A91236
:101100006B017C019B01AC0169857A858B859C858F
:101110000E9409124B015C01A701960169857A853D
:101120008B859C850E94081269877A878B879C87AC
:1011300081E891E00E94A603C501B4010E949903D1
:101140008AE891E00E94A60369857A858B859C8553
:101150000E9499032D893E894F89588D69897A8922
:101160008B899C890E943714A30192010E94A912C5
:101170002B013C019B01AC016D857E858F85988993
:101180000E9408126B017C01A30192016D857E858E
:101190008F8598890E9409122B013C0183E991E017
:1011A0000E94A603C701B6010E9499038CE991E051
:1011B0000E94A603C301B2010E949903D1018D923E
:1011C0009D92AD92BC921397F101C482D582E682C2
:1011D000F78289859A85AB85BC8580879187A287B0
:1011E000B3874486558666867786C101A0960FB67A
:1011F000F894DEBF0FBECDBFDF91CF911F910F914D
:10120000FF90EF90DF90CF90BF90AF909F908F9026
:101210007F906F905F904F903F902F9008952F9206
:101220003F924F925F926F927F928F929F92AF9276
:10123000BF92CF92DF92EF92FF920F931F93CF93C3
:10124000DF9300D000D0CDB7DEB71C01FC01C08811
:10125000D188E288F38884859585A685B785C81AE4
:10126000D90AEA0AFB0A64897589868997899B01EC
:10127000AC010E9437144B015C01F101648D758D46
:10128000868D978D9B01AC010E9409129B01AC01D8
:10129000C501B4010E94A9120E941B13C114D104FC
:1012A000E104F104A1F462307105810591050CF0AF
:1012B0007CC0F10114A215A216A217A2148A158AE5
:1012C000168A178A14AA15AA16AA17AAFFC0F1012E
:1012D00004A915A926A937A91C141D041E041F045E
:1012E00004F510161106120613064CF46C157D0554
:1012F0008E059F055CF52281211157C027C001157D
:1013000011052105310509F450C06C157D058E05C8
:101310009F050CF04AC0F1018281882309F445C081
:1013200039C01016110612061306FCF40027112707
:1013300098010C191D092E093F09601771078207D2
:10134000930724F4F1012281222379F19B01AC015E
:1013500088279927DC01821B930BA40BB50BF101A5
:1013600084AB95ABA6ABB7AB20C001151105210529
:101370003105D9F08824992454018C189D08AE08B1
:10138000BF08681579058A059B057CF4F101828107
:1013900081110BC030952095109501951F4F2F4F4F
:1013A0003F4F04AB15AB26AB37ABF10184A895A832
:1013B000A6A8B7A881149104A104B10491F480AD4A
:1013C00091ADA2ADB3AD84AF95AFA6AFB7AF81E09D
:1013D0001C141D041E041F040CF080E0F101828324
:1013E00041C0F101C4ACD5ACE6ACF7ACA7019601A5
:1013F000C701B6010E9409122B013C01C501B401CD
:101400000E94531320E030E040E850E40E9437147B
:1014100020E030E040E85FE30E9409129B01AC014C
:10142000C301B2010E94A9129B01AC01C701B60120
:101430000E9408127B018C01F101E05CFF4F60808B
:101440007180C280D3809301A6010E942A141816CD
:1014500014F073018601A701B801F10144AF55AF43
:1014600066AF77AFFFEF8F1A9F0AAF0ABF0AF1018D
:1014700084AA95AAA6AAB7AA24AD35AD46AD57ADA4
:10148000CA01B90129833A834B835C830E942213EA
:10149000F10164A375A386A397A329813A814B81A7
:1014A0005C8160E074E284E799E40E94A912F10192
:1014B000648B758B868B978B2281211107C0DC0191
:1014C000CB01B058848B958BA68BB78B0F900F9068
:1014D0000F900F90DF91CF911F910F91FF90EF90A0
:1014E000DF90CF90BF90AF909F908F907F906F9044
:1014F0005F904F903F902F9008954F925F926F9220
:101500007F928F929F92AF92BF92CF92DF92EF9293
:10151000FF92CF93DF93EC016A017B0120E030E082
:10152000A901C701B6010E94A41287FF04C0F7FAFF
:10153000F094F7F8F0948C8C9D8CAE8CBF8CA70146
:101540009601C501B4010E94A412882309F449C080
:101550006CA97DA98EA99FA90E9453132B013C0160
:10156000A7019601C501B4010E94A9129B01AC011B
:10157000C301B2010E9437140E941B136CAB7DABF8
:101580008EAB9FABA701960160E070E080E090E435
:101590000E94A9120E94AA1426E53EE04DE25FE3F4
:1015A0000E94371420E034E244E759E40E943714E3
:1015B00068AF79AF8AAF9BAFCC8EDD8EEE8EFF8E9B
:1015C000CE01DF91CF91FF90EF90DF90CF90BF9051
:1015D000AF909F908F907F906F905F904F900C9402
:1015E0000F09DF91CF91FF90EF90DF90CF90BF90E8
:1015F000AF909F908F907F906F905F904F900895E5
:10160000CF92EF920F93CF93DF93EC018AE391E0B7
:10161000998388836B831C861D861E861F86188A85
:10162000198A1A8A1B8A1C8A1D8A1E8A1F8A80E0D0
:1016300090E0A0E8BFE3888F998FAA8FBB8F1C8EA4
:101640001D8E1E8E1F8E88A399A3AAA3BBA31CA2C6
:101650001DA21EA21FA261E070E07DA76CA73FEF54
:101660003FA718A619A61AA61BA64C832D830E8386
:10167000EF821EA61CAA1DAA1EAA1FAA18AE19AE8A
:101680001AAE1BAE1CAE1DAE1EAE1FAEFE01E05C60
:10169000FF4F80839183A283B3831A8218861986B1
:1016A0001A861B86CC2019F0CE010E94CB0640E0A2
:1016B00050E060E87FE3CE01DF91CF910F91EF9092
:1016C000CF900C947D0ACF92DF92EF92FF92CF934E
:1016D000DF93EC018CA19DA1AEA1BFA1892B8A2B28
:1016E0008B2BD9F10E9457046B017C0188A599A529
:1016F000AAA5BBA5B701A601481B590B6A0B7B0B1A
:101700008CA19DA1AEA1BFA1481759076A077B070D
:1017100020F12A818C859D85AE85BF85222321F00D
:101720000196A11DB11D03C00197A109B1098C87C4
:101730009D87AE87BF87E881F9814C855D856E8581
:101740007F850680F781E02DCE010995C8A6D9A630
:10175000EAA6FBA6CE010E940F0920E030E0A90115
:101760006C897D898E899F890E94A412811110C085
:1017700081E0C888D988EA88FB884C855D856E85BC
:101780007F85C416D506E606F70619F480E001C089
:1017900081E0DF91CF91FF90EF90DF90CF9008959F
:1017A0000F931F93CF93DF93CDB7DEB728970FB674
:1017B000F894DEBF0FBECDBF09831A832B833C8311
:1017C0004D835E836F83788785EA91E00E94A6034C
:1017D00069817A818B819C8143E00E94BB0285E70D
:1017E00091E00E94A6036D817E818F81988543E000
:1017F0000E94BB0287EA91E028960FB6F894DEBFFC
:101800000FBECDBFDF91CF911F910F910C94A60316
:101810008F929F92AF92BF92CF92DF92EF92FF9200
:101820000F931F93CF93DF93CDB7DEB7E0970FB63B
:10183000F894DEBF0FBECDBF4C0109A71AA72BA796
:101840003CA74DA75EA76FA778ABFC01A088B18825
:10185000C288D38887898F9386898F9385898F9350
:1018600084898F938DB79EB708970FB6F8949EBF63
:101870000FBE8DBFADB7BEB7119688E0FE01B99619
:1018800001900D928A95E1F7F401E080F1800281E8
:1018900013812481358146815781B401CE0141965F
:1018A0000E945207F401A088B188C288D388878932
:1018B0008F9386898F9385898F9384898F938DB732
:1018C0009EB708970FB6F8949EBF0FBE8DBFADB7F9
:1018D000BEB7119688E0FE01B99601900D928A95E7
:1018E000E1F7F401E084F1840285138524853585D0
:1018F00046855785B401CE0101960E945207298979
:101900003A894B895C896D897E898F89988D0E947F
:10191000A9120E94751220E030E040E05FE30E94CF
:1019200037142BED3FE049E450E40E94A91220E077
:1019300030E044EB53E40E943714162FC72ED82E04
:10194000E92EF401208531854285538569857A85A4
:101950008B859C850E9408129B01AC016D857E855C
:101960008F8598890E94A9120E94751220E030E0AC
:1019700040E05FE30E9437142BED3FE049E450E480
:101980000E94A91220E030E044EB53E40E94371497
:10199000962EF72E082F892E89EA91E00E94A60341
:1019A00043E0612F7C2D8D2D9E2D0E94BB0281EB8B
:1019B00091E00E94A603692D7F2D802F982D0E9413
:1019C0009903412F5C2D6D2D7E2D49A35AA36BA346
:1019D0007CA3492D5F2D602F782D4DA35EA36FA3AF
:1019E00078A7212F3AA14BA15CA1692D7EA10FB64A
:1019F000F894DEBF0FBECDBF8FA198A5E0960FB6BD
:101A0000F894DEBF0FBECDBFDF91CF911F910F9134
:101A1000FF90EF90DF90CF90BF90AF909F908F900E
:101A200008954F925F926F927F928F929F92AF92A2
:101A3000BF92CF92DF92EF92FF920F931F93CF93BB
:101A4000DF93CDB7DEB760970FB6F894DEBF0FBE59
:101A5000CDBF7C01C02E0987D12E1A872B873C87EA
:101A60004D875E876F87788B8601C7010E94080CBF
:101A700029833A834B835C836D837E838F8398872E
:101A800089EB91E00E94CA0389EC91E00E94A603D1
:101A900009851A852B853C854D855E856F857889FE
:101AA000C7010E94D00B0E94B50281ED91E00E9417
:101AB000A60309811A812B813C814D815E816F8152
:101AC0007885C7010E94D00B0E94B502F701808C77
:101AD000918CA28CB38CA501940169817A818B8150
:101AE0009C810E94A9120E941B132B013C01A5019D
:101AF00094016D817E818F8198850E94A9120E9438
:101B00001B134B015C0189ED91E00E94A603052C9B
:101B1000000C66087708C301B2010E94D90385E76B
:101B200091E00E94A603092C000CAA08BB08C5017D
:101B3000B4010E94D9030E94B50281EE91E00E9497
:101B4000CA036701FCE1CF0ED11CF70184A595A55E
:101B5000A6A5B7A584159505A605B70539F044A631
:101B600055A666A677A6C6010E940F098701005AEE
:101B70001F4FF80180899189A289B3898815990539
:101B8000AA05BB0539F0808A918AA28AB38AC80166
:101B90000E940F0982EF91E00E94CA03C6010E94D1
:101BA000630BC8010E94630B8CEF91E00E94CA0393
:101BB000F70144A555A566A577A580A591A5A2A581
:101BC000B3A5481B590B6A0B7B0BF80180899189DF
:101BD000A289B38984849584A684B78488199909D5
:101BE000AA09BB09480F591F6A1F7B1F1416150647
:101BF000160617069CF584E092E00E94A603F70102
:101C000084A595A5A6A5B7A580A491A4A2A4B3A4D4
:101C1000BC01CD01681979098A099B090E94D90381
:101C200083E192E00E94A603F80180899189A2894C
:101C3000B38984849584A684B784BC01CD016819D6
:101C400079098A099B090E94D9030E94B502C6013D
:101C50000E94630BC8010E94630BAACF85E691E046
:101C600060960FB6F894DEBF0FBECDBFDF91CF9167
:101C70001F910F91FF90EF90DF90CF90BF90AF90AA
:101C80009F908F907F906F905F904F900C94CA03BD
:101C9000E2ECF2E084E291E091838083128213828D
:101CA00014821582EAE1F2E01382128248EE53E0D8
:101CB00060E070E0448355836683778322E131E0FE
:101CC0003183208325EC30E03587248724EC30E015
:101CD0003787268720EC30E0318B208B21EC30E0F9
:101CE000338B228B22EC30E0358B248B26EC30E0DA
:101CF000378B268B118E128E138E148EE8ECF2E049
:101D00009183808312821382148215820895CF9367
:101D1000DF93CDB7DEB7CC55D1090FB6F894DEBF4F
:101D20000FBECDBF789484B5826084BD84B58160D8
:101D300084BD85B5826085BD85B5816085BD809196
:101D40006E00816080936E0010928100809181000E
:101D50008260809381008091810081608093810006
:101D6000809180008160809380008091B1008460C8
:101D70008093B1008091B00081608093B000809129
:101D80007A00846080937A0080917A0082608093E8
:101D90007A0080917A00816080937A0080917A0045
:101DA000806880937A001092C100E0912A02F0913D
:101DB0002B0282E08083E0912602F09127021082BC
:101DC000E0912802F091290280E180831092320292
:101DD000E0912E02F0912F0286E08083E0912C02A8
:101DE000F0912D02808180618083E0912C02F0913E
:101DF0002D02808188608083E0912C02F0912D0279
:101E0000808180688083E0912C02F0912D02808196
:101E10008F7D808384EA90E00E944F155C013C0135
:101E20002CE1620E711CCC24C39495E0E92E04E0F1
:101E300023E042E064E0C3010E94000B450180E61C
:101E4000880E911C23E042E064E0C4010E94000B74
:101E500080E090E0ACE0B3E4F501848B958BA68B39
:101E6000B78B808B918BA28BB38B108211821282E5
:101E70001382148215821682178280E090E0A8EC0B
:101E8000B2E480879187A287B38714861586168669
:101E9000178686E696E6A6E6BFE3808F918FA28F2F
:101EA000B38F28E049E061E0CE0101960E94000B6B
:101EB0008B81F501868F8C81878F8D819E81AF818B
:101EC000B88580A391A3A2A3B3A389859A85AB8586
:101ED000BC8584A395A3A6A3B7A38D859E85AF8556
:101EE000B88980A791A7A2A7B3A789899A89AB8946
:101EF000BC8984A795A7A6A7B7A78D899E89AF8916
:101F0000B88D80AB91ABA2ABB3AB898D9A8DAB8D05
:101F1000BC8D84AB95ABA6ABB7AB8D8D9E8DAF8DD5
:101F2000B8A180AF91AFA2AFB3AF89A19AA1ABA185
:101F3000BCA184AF95AFA6AFB7AF2501F0E44F0EBB
:101F4000511C8DA19EA1AFA1B8A5F2018083918300
:101F5000A283B383349689A59AA5ABA5BCA580833B
:101F60009183A283B38334968DA59EA591838083AC
:101F700032968FA58083319688A98083319689A96E
:101F80009AA99183808332968BA99CA9918380839F
:101F90001501F0E52F0E311C8DA99EA9AFA9B8AD92
:101FA000F10180839183A283B383349689AD9AAD86
:101FB000ABADBCAD80839183A283B383349621966D
:101FC0008CAD9DADAEADBFAD219780839183A283D3
:101FD000B383349625968CAD9DADAEADBFAD259740
:101FE00080839183A283B38326E047E061E0CE0142
:101FF00001960E94000B8B81F40182838C81838384
:102000008D819E81AF81B88584839583A683B783B4
:1020100089859A85AB85BC8580879187A287B387A0
:102020008D859E85AF85B88984879587A687B78774
:1020300089899A89AB89BC89808B918BA28BB38B60
:102040008D899E89AF89B88D848B958BA68BB78B34
:10205000898D9A8DAB8DBC8D808F918FA28FB38F20
:102060008D8D9E8DAF8DB8A1848F958FA68FB78FE4
:1020700089A19AA1ABA1BCA180A391A3A2A3B3A360
:102080008DA19EA1AFA1B8A584A395A3A6A3B7A334
:1020900089A59AA5ABA5BCA580A791A7A2A7B3A720
:1020A0008DA59EA595A784A78FA586A788A987A794
:1020B00089A99AA991AB80AB8BA99CA993AB82AB60
:1020C0008DA99EA9AFA9B8AD84AB95ABA6ABB7ABB4
:1020D00089AD9AADABADBCAD80AF91AFA2AFB3AFA0
:1020E00021968CAD9DADAEADBFAD219784AF95AFC0
:1020F000A6AFB7AFE05CFF4F25968CAD9DADAEAD02
:10210000BFAD259780839183A283B383C3010E94CF
:10211000B501C4010E94B50140E050E068E474E4F8
:10212000C3010E947D0A40E050E068E474E4C40109
:102130000E947D0A29961CAE1DAE1EAE1FAE2997C9
:1021400080E090E0A8E4B3E42D968CAF9DAFAEAFF5
:10215000BFAF2D9700E027961FAD279728962FAD8C
:10216000289729963FAD299740E02B965FAD2B9796
:102170002C966FAD2C972D967FAD2D97C5010E94A3
:10218000080C29833A834B835C836D837E838F8322
:102190009887F501C08CD18CE28CF38CA701960155
:1021A00069817A818B819C810E94A9120E941B13F4
:1021B000F50160A771A782A793A764A775A786A753
:1021C00097A7F1011082118212821382F20110820C
:1021D000118212821382F50110AA11AA12AA13AA5F
:1021E000A70196016D817E818F8198850E94A91239
:1021F0000E941B13F4016487758786879787608B1D
:10220000718B828B938B14AA15AA16AA17AA14A2F3
:1022100015A216A217A2148A158A168A178AB092D6
:10222000B802A092B7028FE591E00E94CA03F12C98
:10223000D12C28E4C22E33E4732E48E0E42E8AE643
:1022400091E00E94A603E091B702F091B80260A568
:1022500071A582A593A50E94D90385E791E00E940C
:10226000A603E091B702F091B80260A571A582A51E
:1022700093A50E94D90382E591E00E94CA0388E7F2
:1022800091E00E94A60319821A821B821C824F2DA4
:102290008F2D9D2DAC2DB72D8D839E83AF83B88759
:1022A00000E01A812B813C815E816F81788580916D
:1022B000B7029091B8020E94D00B29961CAE1DAEB9
:1022C0001EAE1FAE29974F2D8F2D9D2DAC2DB72DF6
:1022D0002D968CAF9DAFAEAFBFAF2D9727961FAD9C
:1022E000279728962FAD289729963FAD29972B96AB
:1022F0005FAD2B972C966FAD2C972D967FAD2D97BC
:102300008091B7029091B8020E94110D82E591E090
:102310000E94CA0388E791E00E94A603E6E0F1E08C
:10232000DE01A35BBF4F8E2D01900D928A95E1F7E0
:102330002E960FAD2E972F961FAD2F9760962FAD2F
:10234000609761963FAD619762964FAD62976396D5
:102350005FAD639764966FAD649765967FAD659743
:102360008091B7029091B8020E94D00BE6E0F1E0B4
:10237000DE01AB5ABF4F8E2D01900D928A95E1F789
:1023800066960FAD669767961FAD679768962FADF7
:10239000689769963FAD69976A964FAD6A976B9655
:1023A0005FAD6B976C966FAD6C976D967FAD6D97CB
:1023B0008091B7029091B8020E94110D0E945704BB
:1023C0001B012C0188EE882E83E0982EA12CB12CC5
:1023D0000E945704DC01CB0182199309A409B509B5
:1023E000883E9340A105B10558F0F1E08F1A91089D
:1023F000A108B10828EE220E23E0321E411C511C18
:1024000081149104A104B10419F70E941E0517CF8D
:102410005058BB27AA270E9420120C94F0130E9448
:10242000E21338F00E94E91320F039F49F3F19F4C9
:1024300026F40C94B8130EF4E095E7FB0C94B21359
:10244000E92F0E94011458F3BA1762077307840733
:10245000950720F079F4A6F50C9423140EF4E0957A
:102460000B2EBA2FA02D0B01B90190010C01CA014E
:10247000A0011124FF27591B99F0593F50F4503EF9
:1024800068F11A16F040A22F232F342F4427585FEB
:10249000F3CF469537952795A795F0405395C9F703
:1024A0007EF41F16BA0B620B730B840BBAF09150BB
:1024B000A1F0FF0FBB1F661F771F881FC2F70EC05A
:1024C000BA0F621F731F841F48F48795779567952D
:1024D000B795F7959E3F08F0B0CF9395880F08F019
:1024E0009927EE0F979587950895DF93DD27B92FEC
:1024F000BF7740E85FE31616170648075B0718F436
:10250000D92F0E942F149F938F937F936F930E94D4
:10251000EA14E8E8F0E00E94BB130E94F0132F9148
:102520003F914F915F910E944A14DD2351F09058E2
:10253000A2EA2AED3FE049EC5FE3D0785D270E94F4
:102540002012DF910C94F0130E948E1308F481E0A6
:1025500008950E94BD120C94F0130E94E91358F0E4
:102560000E94E21340F029F45F3F29F00C94B2136B
:1025700051110C9424140C94B8130E94011468F3A4
:102580009923B1F3552391F3951B550BBB27AA272C
:1025900062177307840738F09F5F5F4F220F331F66
:1025A000441FAA1FA9F335D00E2E3AF0E0E832D02E
:1025B00091505040E695001CCAF72BD0FE2F29D031
:1025C000660F771F881FBB1F261737074807AB0703
:1025D000B0E809F0BB0B802DBF01FF2793585F4F78
:1025E0003AF09E3F510578F00C94B2130C942414E9
:1025F0005F3FE4F3983ED4F3869577956795B7955A
:10260000F7959F5FC9F7880F911D9695879597F964
:102610000895E1E0660F771F881FBB1F62177307DD
:102620008407BA0720F0621B730B840BBA0BEE1FF2
:1026300088F7E09508950E9422136894B1110C94D4
:10264000241408950E94091488F09F5798F0B92F18
:102650009927B751B0F0E1F0660F771F881F991FD7
:102660001AF0BA95C9F714C0B13091F00E94231442
:10267000B1E008950C942314672F782F8827B85F52
:1026800039F0B93FCCF3869577956795B395D9F72F
:102690003EF490958095709561957F4F8F4F9F4F39
:1026A0000895E89409C097FB3EF490958095709545
:1026B00061957F4F8F4F9F4F9923A9F0F92F96E98E
:1026C000BB279395F695879577956795B795F11103
:1026D000F8CFFAF4BB0F11F460FF1BC06F5F7F4FA0
:1026E0008F4F9F4F16C0882311F096E911C07723B2
:1026F00021F09EE8872F762F05C0662371F096E8BB
:10270000862F70E060E02AF09A95660F771F881F89
:10271000DAF7880F9695879597F90895990F00082D
:10272000550FAA0BE0E8FEEF16161706E807F907A3
:10273000C0F012161306E407F50798F0621B730B3E
:10274000840B950B39F40A2661F0232B242B252BBF
:1027500021F408950A2609F4A140A6958FEF811D62
:10276000811D089597F99F6780E870E060E0089503
:102770009FEF80EC0895DF93CF931F930F93FF9209
:10278000EF92DF927B018C01689406C0DA2EEF0194
:102790000E944A14FE01E894A59125913591459136
:1027A0005591A6F3EF010E942012FE019701A801A6
:1027B000DA9469F7DF90EF90FF900F911F91CF911E
:1027C000DF91089500240A941616170618060906C4
:1027D000089500240A941216130614060506089597
:1027E000092E0394000C11F4882352F0BB0F40F41F
:1027F000BF2B11F460FF04C06F5F7F4F8F4F9F4F5F
:10280000089557FD9058440F551F59F05F3F71F0E0
:102810004795880F97FB991F61F09F3F79F0879547
:102820000895121613061406551FF2CF4695F1DFD0
:1028300008C0161617061806991FF1CF8695710560
:10284000610508940895E894BB2766277727CB0194
:1028500097F908950E948E1308F48FEF08959B0155
:10286000AC0160E070E080E89FE30C94A9120E9444
:102870004A140C94F0130E94E21338F00E94E913FA
:1028800020F0952311F00C94B2130C94B81311247A
:102890000C9424140E94011470F3959FC1F3950FBA
:1028A00050E0551F629FF001729FBB27F00DB11DD4
:1028B000639FAA27F00DB11DAA1F649F6627B00D64
:1028C000A11D661F829F2227B00DA11D621F739F4D
:1028D000B00DA11D621F839FA00D611D221F749F5B
:1028E0003327A00D611D231F849F600D211D822FA2
:1028F000762F6A2F11249F5750409AF0F1F08823C9
:102900004AF0EE0FFF1FBB1F661F771F881F9150F5
:102910005040A9F79E3F510580F00C94B2130C94DF
:1029200024145F3FE4F3983ED4F38695779567953A
:10293000B795F795E7959F5FC1F7FE2B880F911D1F
:102940009695879597F9089519F416F40C94B81391
:102950000C94F3140E940914B8F39923C9F3B6F345
:102960009F57550B87FF0E9401150024A0E640EAFF
:10297000900180585695979528F4805C660F771FD4
:10298000881F20F026173707480730F4621B730BA7
:10299000840B202931294A2BA695179407942025CA
:1029A00031254A2758F7660F771F881F20F0261712
:1029B0003707480730F4620B730B840B200D311D71
:1029C000411DA09581F7B901842F9158880F9695E4
:1029D000879508959B01AC010C9437140E948E13C7
:1029E000880B990B08959F3F31F0915020F4879503
:1029F00077956795B795880F911D9695879597F967
:102A0000089591505040660F771F881FD2F70895A0
:102A1000A1E21A2EAA1BBB1BFD010DC0AA1FBB1FE2
:102A2000EE1FFF1FA217B307E407F50720F0A21B54
:102A3000B30BE40BF50B661F771F881F991F1A94C1
:102A400069F760957095809590959B01AC01BD01EB
:102A5000CF010895052E97FB1EF400940E944115A6
:102A600057FD07D00E94081507FC03D04EF40C94C4
:102A7000411550954095309521953F4F4F4F5F4FF1
:102A8000089590958095709561957F4F8F4F9F4FDA
:102A90000895EE0FFF1F0590F491E02D0994CF9358
:102AA000DF938230910510F482E090E0E091D00253
:102AB000F091D10220E030E0C0E0D0E0309711F199
:102AC0004081518148175907C0F04817590761F4F0
:102AD00082819381209719F09B838A832BC09093E6
:102AE000D1028093D00226C02115310519F042177A
:102AF000530718F49A01BE01DF01EF010280F38150
:102B0000E02DDCCF2115310509F1281B390B2430CC
:102B1000310590F412968D919C9113976115710572
:102B200021F0FB019383828304C09093D1028093B0
:102B3000D002FD01329644C0FD01E20FF31F8193E4
:102B40009193225031092D933C933AC02091CE02AB
:102B50003091CF02232B41F42091020130910301E7
:102B60003093CF022093CE022091000130910101D9
:102B70002115310541F42DB73EB740910401509124
:102B80000501241B350BE091CE02F091CF02E21734
:102B9000F307A0F42E1B3F0B2817390778F0AC0180
:102BA0004E5F5F4F2417350748F04E0F5F1F50935D
:102BB000CF024093CE028193919302C0E0E0F0E017
:102BC000CF01DF91CF9108950F931F93CF93DF93A0
:102BD000009709F48CC0FC01329713821282009195
:102BE000D0021091D1020115110581F420813181AB
:102BF000820F931F2091CE023091CF022817390700
:102C000079F5F093CF02E093CE0271C0D80140E095
:102C100050E0AE17BF0750F412962D913C911397D8
:102C2000AD012115310509F1D901F3CF9D01DA017B
:102C30003383228360817181860F971F82179307E8
:102C400069F4EC0128813981260F371F2E5F3F4F31
:102C5000318320838A819B8193838283452B29F44E
:102C6000F093D102E093D00242C01396FC93EE930E
:102C70001297ED01499159919E01240F351FE217DA
:102C8000F30771F480819181840F951F029611964C
:102C90009C938E938281938113969C938E9312972B
:102CA000E0E0F0E0D80112968D919C911397009787
:102CB00019F0F8018C01F6CF8D919C9198012E5F4F
:102CC0003F4F820F931F2091CE023091CF022817E1
:102CD000390769F4309729F41092D1021092D0028A
:102CE00002C0138212821093CF020093CE02DF91B2
:102CF000CF911F910F91089581E090E0F8940C948A
:062D00008116F894FFCFDC
:102D06000000D20280000000964200004843000006
:102D160000004C01B500E40093011501F300070122
:102D2600000000006F02000080BF000080BF0000AE
:102D360080BF000080BF00000000F906CB06160722
:102D46008606700638061706E305C2056C052805D3
:102D56000D0A006E616E00696E66006F766600731E
:102D66006574757020646F6E65007374617274703B
:102D76006F733A20002C20006D6F766520746F20EB
:102D860000522E612E78203D2000522E622E782091
:102D96003D2000522E612E79203D2000522E622EBB
:102DA60079203D20007B007D0072657478203D20EF
:102DB6000072657479203D20007374617274696EC7
:102DC60067206D6F7665546F00706F696E743A2078
:102DD60000616E676C65733A0073746570733A20B0
:102DE6000073746570732063616C63756C617465E0
:102DF60064007374657073207365740072756E6E0B
:102E0600696E6700737465707320746F20676F2036
:0A2E1600413A002C20423A2000004F
:00000001FF
