:100000000C9451000C9479000C9479000C947900B4
:100010000C9479000C9479000C9479000C9479007C
:100020000C9479000C9479000C9479000C9479006C
:100030000C9479000C9479000C9479000C9479005C
:100040000C94FC040C9479000C946C050C944605FB
:100050000C9479000C9479000C9479000C9479003C
:100060000C9479000C947900028988083EABAAAA06
:10007000AABE000000803F07634236B79BD8A71A8C
:1000800039685618AEBAAB558C1D3CB7CC5763BD1A
:100090006DEDFD753EF6177231BF000000803F0028
:1000A0000B0811241FBECFEFD8E0DEBFCDBF11E09B
:1000B000A0E0B1E0EAE3F8E102C005900D92A83CAF
:1000C000B107D9F722E0A8ECB1E001C01D92AE362D
:1000D000B207E1F710E0C1E5D0E004C02197FE01CE
:1000E0000E94100CC035D107C9F70E949E050C94E0
:1000F0001B0C0C940000CF92DF92EF92FF920F93B3
:100100001F93CF93DF936C017A018B01C0E0D0E0A5
:10011000CE15DF0589F0D8016D918D01D601ED91E5
:10012000FC910190F081E02DC6010995892B11F415
:100130007E0102C02196ECCFC701DF91CF911F91C4
:100140000F91FF90EF90DF90CF900895089580E099
:1001500090E00895FC01538D448D252F30E0842FCD
:1001600090E0821B930B541710F0CF9608950197DF
:100170000895FC01918D828D981761F0828DDF01C9
:10018000A80FB11D5D968C91928D9F5F9F73928F8A
:1001900090E008958FEF9FEF0895FC01918D828D7F
:1001A000981731F0828DE80FF11D858D90E008954C
:1001B0008FEF9FEF0895FC01918D228D892F90E0A4
:1001C000805C9F4F821B91098F739927089581ED61
:1001D00091E00E94DB0021E0892B09F420E0822FCE
:1001E0000895FC01848DDF01A80FB11DA35ABF4FF4
:1001F0002C91848D90E001968F739927848FA68926
:10020000B7892C93A089B1898C9180648C93938D4C
:10021000848D981306C00288F389E02D80818F7D3C
:1002200080830895EF92FF920F931F93CF93DF93F4
:10023000EC0181E0888F9B8D8C8D981305C0E88937
:10024000F989808185FD24C0F62E0B8D10E00F5FAB
:100250001F4F0F731127E02E8C8DE8120CC00FB6C4
:1002600007FCFACFE889F989808185FFF5CFCE01B7
:100270000E94F100F1CF8B8DFE01E80FF11DE35AD2
:10028000FF4FF0820B8FEA89FB898081806207C073
:10029000EE89FF896083E889F989808180648083A1
:1002A00081E090E0DF91CF911F910F91FF90EF904F
:1002B0000895CF93DF93EC01888D8823C9F0EA89F4
:1002C000FB89808185FD05C0A889B9898C9186FD4F
:1002D0000FC00FB607FCF5CF808185FFF2CFA8894C
:1002E000B9898C9185FFEDCFCE010E94F100E7CF57
:1002F000DF91CF91089580E090E0892B29F00E9452
:10030000E70081110C9400000895009769F0FC014A
:1003100001900020E9F73197AF01481B590BBC0150
:1003200081ED91E00C947B0080E090E008958F9245
:100330009F92AF92BF920F931F93CF93DF93CDB74E
:10034000DEB7A1970FB6F894DEBF0FBECDBF19A2DE
:10035000423008F44AE08E010F5D1F4F842E912C2D
:10036000A12CB12CA50194010E94EE0BE62FB9013E
:10037000CA0101501109EA3014F4E05D01C0E95CE2
:10038000D801EC93232B242B252B61F7C8010E9465
:100390008501A1960FB6F894DEBF0FBECDBFDF91E9
:1003A000CF911F910F91BF90AF909F908F90089524
:1003B0000C948501CF93DF930E948501EC018AE2C2
:1003C00091E00E9485018C0F9D1FDF91CF910895D0
:1003D0004F925F926F927F928F929F92AF92BF9255
:1003E000CF92DF92EF92FF926B017C01B42E9B01C2
:1003F000AC010E94E90A882319F08DE291E027C040
:1004000026013701E89477F82FEF3FEF4FE75FE7DA
:10041000C301B2010E94E90A81110DC02FEF3FEF25
:100420004FE75FE7C301B2010E94A50818161CF44C
:1004300081E391E00CC02FEF3FEF4FE75FE4C7018E
:10044000B6010E94FD09181684F485E391E0FF903F
:10045000EF90DF90CF90BF90AF909F908F907F9064
:100460006F905F904F900C9485012FEF3FEF4FE717
:100470005FECC701B6010E94A50887FDE6CF20E02A
:1004800030E0A901C701B6010E94A50887FF11C08D
:10049000E091D101F091D2010190F081E02D6DE267
:1004A00081ED91E009954C01F7FAF094F7F8F0949A
:1004B00002C0812C912CA12C60E070E080E09FE3D1
:1004C000AB1441F020E030E040E251E40E94AA0881
:1004D000A394F6CF9B01AC01C701B6010E94390875
:1004E0002B013C010E941C096B017C010E944B09FD
:1004F0009B01AC01C301B2010E9438082B013C01F1
:100500004AE0C701B6010E9497017C01E80CF91C82
:10051000BB2069F0E091D101F091D2010190F0810E
:10052000E02D6EE281ED91E00995E80EF91EDB2CDD
:10053000DD2021F120E030E040E251E4C301B201CE
:100540000E94020A2B013C010E941C094B01A12CB4
:10055000B12C4AE0C501B4010E949701E80EF91ED2
:10056000C501B4010E944B099B01AC01C301B2015A
:100570000E9438082B013C01DA94DACFC701FF90C2
:10058000EF90DF90CF90BF90AF909F908F907F9033
:100590006F905F904F900895CF93DF9343E00E9458
:1005A000E801EC018AE291E00E9485018C0F9D1F19
:1005B000DF91CF910895CF93DF93CDB7DEB7289722
:1005C0000FB6F894DEBF0FBECDBF29833A834B83AD
:1005D0005C836D837E838F83988789E391E00E949B
:1005E000D80169817A818B819C8143E00E94E80176
:1005F0008BE391E00E94D8016D817E818F81988587
:1006000043E00E94E80184EA91E028960FB6F8944E
:10061000DEBF0FBECDBFDF91CF910C94D8010E94F9
:10062000160C2F923F924F925F926F927F928F9211
:100630009F92AF92BF92CF92DF92EF92FF920F9371
:100640001F93CF93DF93CDB7DEB7A0970FB6F89483
:10065000DEBF0FBECDBF1C01E982FA820B831C8373
:100660002D833E834F83588789819A81AB81BC81DA
:1006700089879A87AB87BC878D819E81AF81B8853A
:10068000898B9A8BAB8BBC8B8DA99EA9AFA9B8AD7A
:100690008D8B9E8BAF8BB88F89AD9AADABADBCAD5A
:1006A0008D8F9E8FAF8FB8A32D893E894F89588D2E
:1006B00069857A858B859C850E943808698F7A8F39
:1006C0008B8F9C8F2D8D3E8D4F8D58A169897A8996
:1006D0008B899C890E9438082B013C01298D3A8D19
:1006E0004B8D5C8DCA01B9010E94020A698F7A8F15
:1006F0008B8F9C8FA3019201C301B2010E94020A59
:100700009B01AC01698D7A8D8B8D9C8D0E9439087F
:100710000E94750A2B013C018EE391E00E94D801F2
:10072000C301B2010E94CC0221962CAD3DAD4EAD6D
:100730005FAD2197C601B5010E9439089B01AC014C
:10074000C301B2010E94FD0918164CF480E1E0E0FB
:10075000F1E0D10101900D928A95E1F733C1A60134
:100760009501C601B5010E94020A6B017C01219628
:100770002CAD3DAD4EAD5FAD2197CA01B9010E94D0
:10078000020A9B01AC01C701B6010E9438084B0167
:100790005C01A3019201C301B2010E94020A9B0104
:1007A000AC01C501B4010E9439084B015C01A301F1
:1007B0009201C301B2010E9439089B01AC01C5013D
:1007C000B4010E94AA084B015C0183E491E00E94FD
:1007D000D801C501B4010E94CC02A5019401C50154
:1007E000B4010E94020A9B01AC01C701B6010E943C
:1007F00038080E94750A6D877E878F87988B88E4FA
:1008000091E00E94D8016D857E858F8598890E9430
:10081000CC0229853A854B855C856D897E898F89D7
:10082000988D0E9438086D8B7E8B8F8B988F9B01E3
:10083000AC01C501B4010E94020AA30192010E9409
:10084000AA089B01AC0169857A858B859C850E94ED
:10085000390869877A878B879C8729893A894B89E8
:100860005C896D8D7E8D8F8D98A10E9438086B01FB
:100870007C019B01AC01C501B4010E94020AA301E5
:1008800092010E94AA089B01AC0169897A898B892F
:100890009C890E9439084B015C018DE491E00E9423
:1008A000D80169857A858B859C850E94CC0284E578
:1008B00091E00E94D801C501B4010E94CC02A701B9
:1008C00096016D857E858F8598890E94020AA30115
:1008D00092010E94AA086B017C019B01AC01698511
:1008E0007A858B859C850E943908698B7A8B8B8BE6
:1008F0009C8BA701960169857A858B859C850E94D2
:10090000380869877A878B879C878BE591E00E94FE
:10091000D80169897A898B899C890E94CC0284E6F6
:1009200091E00E94D80169857A858B859C850E941B
:10093000CC022D893E894F89588D6D857E858F85A6
:1009400098890E94020AA30192010E94AA082B0121
:100950003C019B01AC01C501B4010E9439086B0147
:100960007C01A3019201C501B4010E9438082B014A
:100970003C018DE691E00E94D801C701B6010E94BA
:10098000CC0286E791E00E94D801C301B2010E9427
:10099000CC0289899A89AB89BC89F10180839183D2
:1009A000A283B383C482D582E682F78289859A8541
:1009B000AB85BC8580879187A287B387448655869F
:1009C00066867786C101A0960FB6F894DEBF0FBE8B
:1009D000CDBFDF91CF911F910F91FF90EF90DF90EE
:1009E000CF90BF90AF909F908F907F906F905F90CF
:1009F0004F903F902F9008951F920F920FB60F9235
:100A000011242F933F938F939F93AF93BF93809124
:100A1000CD019091CE01A091CF01B091D001309144
:100A2000CC0123E0230F2D3720F40196A11DB11D29
:100A300005C026E8230F0296A11DB11D2093CC010D
:100A40008093CD019093CE01A093CF01B093D001BC
:100A50008091C8019091C901A091CA01B091CB01C8
:100A60000196A11DB11D8093C8019093C901A09367
:100A7000CA01B093CB01BF91AF919F918F913F91EC
:100A80002F910F900FBE0F901F9018951F920F92ED
:100A90000FB60F9211242F933F934F935F936F9351
:100AA0007F938F939F93AF93BF93EF93FF9381EDCA
:100AB00091E00E94F100FF91EF91BF91AF919F9162
:100AC0008F917F916F915F914F913F912F910F90F7
:100AD0000FBE0F901F9018951F920F920FB60F9296
:100AE00011242F938F939F93EF93FF93E091E10154
:100AF000F091E2018081E091E701F091E80182FD4F
:100B000012C090818091EA018F5F8F732091EB0179
:100B1000821751F0E091EA01F0E0EF52FE4F958F1D
:100B20008093EA0101C08081FF91EF919F918F91A5
:100B30002F910F900FBE0F901F901895CF93DF93BA
:100B4000CDB7DEB7C856D1090FB6F894DEBF0FBED9
:100B5000CDBF789484B5826084BD84B5816084BD46
:100B600085B5826085BD85B5816085BD80916E004B
:100B7000816080936E00109281008091810082607C
:100B800080938100809181008160809381008091B9
:100B900080008160809380008091B10084608093A8
:100BA000B1008091B00081608093B00080917A00A4
:100BB000846080937A0080917A00826080937A00CA
:100BC00080917A00816080937A0080917A008068B9
:100BD00080937A001092C100E091E101F091E2016E
:100BE00082E08083E091DD01F091DE011082E091EE
:100BF000DF01F091E0018FEC80831092E901E09138
:100C0000E501F091E60186E08083E091E301F09157
:100C1000E401808180618083E091E301F091E4014F
:100C2000808188608083E091E301F091E40180811C
:100C300080688083E091E301F091E40180818F7D01
:100C400080838FE791E00E94DA0180E090E0A5E0E8
:100C5000B3E48D8B9E8BAF8BB88F898B9A8BAB8BCC
:100C6000BC8B19821A821B821C821D821E821F82EB
:100C7000188680E090E0A8ECB2E489879A87AB8779
:100C8000BC871D861E861F86188A8AE891E00E940E
:100C9000DA019D892E893F89488D88E0E0E1F1E005
:100CA000DE01AF5ABF4F01900D928A95E1F7A988F6
:100CB000BA88CB88DC884F933F932F939F938DB74F
:100CC0009EB708970FB6F8949EBF0FBE8DBFADB705
:100CD000BEB7119688E0FE01EF5AFF4F01900D92CA
:100CE0008A95E1F7E980FA800B811C812D813E8194
:100CF0004F815885BE016F5F7F4FCE01C9960E941C
:100D0000110389E391E00E94D80129AD3AAD4BADC2
:100D10005CAD6DAD7EAD8FAD21969FAD21970E94EC
:100D2000DB028BE391E00E94D80122962FAD22973F
:100D300023963FAD239724964FAD249725965FAD1C
:100D4000259726966FAD269727967FAD27972896ED
:100D50008FAD289729969FAD29970E94DB0283EAE1
:100D600091E00E94D8018CE291E00E94DA0186EACB
:100D700091E00E94DA019D892E893F89488D88E0A3
:100D8000E0E1F1E0DE01A75ABF4F01900D928A9594
:100D9000E1F7A988BA88CB88DC884F933F932F93DB
:100DA0009F938DB79EB708970FB6F8949EBF0FBE5E
:100DB0008DBFADB7BEB7119688E0FE01E75AFF4F71
:100DC00001900D928A95E1F7E984FA840B851C85E0
:100DD0002D853E854F855889BE016F5F7F4FCE01BF
:100DE000C9960E94110389E391E00E94D80129ADC0
:100DF0003AAD4BAD5CAD6DAD7EAD8FAD21969FAD87
:100E000021970E94DB028BE391E00E94D801229699
:100E10002FAD229723963FAD239724964FAD24976D
:100E200025965FAD259726966FAD269727967FADC1
:100E3000279728968FAD289729969FAD29970E94CE
:100E4000DB0283EA91E00E94D8018CE291E00E94EB
:100E5000DA0188E0E0E1F1E0DE01AF59BF4F019037
:100E60000D928A95E1F788E0FE01EF59FF4FDE0110
:100E7000A75BBF4F01900D928A95E1F7A988BA88C8
:100E8000CB88DC88888D8F938F898F938E898F9301
:100E90008D898F938DB79EB708970FB6F8949EBF34
:100EA0000FBE8DBFADB7BEB7119688E0FE01E75B00
:100EB000FF4F01900D928A95E1F7E980FA800B814E
:100EC0001C812D813E814F815885BE016F5F7F4F10
:100ED000CE0189960E9411030FB6F894DEBF0FBEB3
:100EE000CDBFA988BA88CB88DC88888D8F938F89FD
:100EF0008F938E898F938D898F938DB79EB7089727
:100F00000FB6F8949EBF0FBE8DBFADB7BEB711969A
:100F100088E0FE01E75BFF4F01900D928A95E1F7B3
:100F2000E984FA840B851C852D853E854F8558897B
:100F3000BE016F5F7F4FCE0149960E94110329A524
:100F40003AA54BA55CA56DA57EA58FA598A90E9485
:100F5000AA080E94B50A4B015C0129853A854B8598
:100F60005C8569A17AA18BA19CA10E9438089B0194
:100F7000AC016DA17EA18FA198A50E94AA080E9434
:100F8000B50A6B017C0120E030E040E05FE3C50181
:100F9000B4010E94020A2BED3FE049E450E40E94B4
:100FA000AA0820E030E044EB53E40E94020A698F73
:100FB0007A8F8B8F9C8F20E030E040E05FE3C701A9
:100FC000B6010E94020A2BED3FE049E450E40E9482
:100FD000AA0820E030E044EB53E40E94020A6D8F3F
:100FE0007E8F8F8F98A38FEB91E00E94DA01298D7D
:100FF0003A8D4B8D5C8D6D8D7E8D8F8D98A10E946D
:10100000DB028CE291E00E94DA010FB6F894DEBFB9
:101010000FBECDBFFFCFE1EDF1E01382128288EE6B
:1010200093E0A0E0B0E084839583A683B7838CE14E
:1010300091E09183808385EC90E09587848784ECB0
:1010400090E09787868780EC90E0918B808B81EC95
:1010500090E0938B828B82EC90E0958B848B86EC76
:1010600090E0978B868B118E128E138E148E0895BE
:101070005058BB27AA270E9450080C94C3090E940D
:10108000B50938F00E94BC0920F039F49F3F19F4EB
:1010900026F40C94B2090EF4E095E7FB0C94AC092D
:1010A000E92F0E94D40958F3BA176207730784071F
:1010B000950720F079F4A6F50C94F6090EF4E09566
:1010C0000B2EBA2FA02D0B01B90190010C01CA0102
:1010D000A0011124FF27591B99F0593F50F4503EAD
:1010E00068F11A16F040A22F232F342F4427585F9F
:1010F000F3CF469537952795A795F0405395C9F7B7
:101100007EF41F16BA0B620B730B840BBAF091506E
:10111000A1F0FF0FBB1F661F771F881FC2F70EC00D
:10112000BA0F621F731F841F48F4879577956795E0
:10113000B795F7959E3F08F0B0CF9395880F08F0CC
:101140009927EE0F9795879508950E94880908F4CE
:1011500081E008950E94BE080C94C3090E94BC0956
:1011600058F00E94B50940F029F45F3F29F00C9433
:10117000AC0951110C94F7090C94B2090E94D409DE
:1011800068F39923B1F3552391F3951B550BBB27B6
:10119000AA2762177307840738F09F5F5F4F220FFB
:1011A000331F441FAA1FA9F335D00E2E3AF0E0E8F2
:1011B00032D091505040E695001CCAF72BD0FE2F3C
:1011C00029D0660F771F881FBB1F261737074807D0
:1011D000AB07B0E809F0BB0B802DBF01FF27935888
:1011E0005F4F3AF09E3F510578F00C94AC090C9497
:1011F000F7095F3FE4F3983ED4F3869577956795BA
:10120000B795F7959F5FC9F7880F911D96958795BC
:1012100097F90895E1E0660F771F881FBB1F6217DB
:1012200073078407BA0720F0621B730B840BBA0B99
:10123000EE1F88F7E09508950E94DC0988F09F571B
:1012400098F0B92F9927B751B0F0E1F0660F771FEA
:10125000881F991F1AF0BA95C9F714C0B13091F0E0
:101260000E94F609B1E008950C94F609672F782FD3
:101270008827B85F39F0B93FCCF3869577956795A5
:10128000B395D9F73EF490958095709561957F4F11
:101290008F4F9F4F0895E89409C097FB3EF49095B7
:1012A0008095709561957F4F8F4F9F4F9923A9F03F
:1012B000F92F96E9BB279395F695879577956795CE
:1012C000B795F111F8CFFAF4BB0F11F460FF1BC012
:1012D0006F5F7F4F8F4F9F4F16C0882311F096E9A5
:1012E00011C0772321F09EE8872F762F05C0662353
:1012F00071F096E8862F70E060E02AF09A95660F0C
:10130000771F881FDAF7880F9695879597F90895C4
:10131000990F0008550FAA0BE0E8FEEF1616170606
:10132000E807F907C0F012161306E407F50798F06E
:10133000621B730B840B950B39F40A2661F0232B87
:10134000242B252B21F408950A2609F4A140A69503
:101350008FEF811D811D089597F99F6780E870E0E8
:1013600060E008959FEF80EC089500240A9416161B
:10137000170618060906089500240A941216130683
:10138000140605060895092E0394000C11F4882311
:1013900052F0BB0F40F4BF2B11F460FF04C06F5F2D
:1013A0007F4F8F4F9F4F089557FD9058440F551F03
:1013B00059F05F3F71F04795880F97FB991F61F0D7
:1013C0009F3F79F087950895121613061406551F4E
:1013D000F2CF4695F1DF08C0161617061806991FBA
:1013E000F1CF86957105610508940895E894BB27AF
:1013F00066277727CB0197F908950E94880908F49A
:101400008FEF08950E94150A0C94C3090E94B50934
:1014100038F00E94BC0920F0952311F00C94AC091F
:101420000C94B20911240C94F7090E94D40970F3AA
:10143000959FC1F3950F50E0551F629FF001729F79
:10144000BB27F00DB11D639FAA27F00DB11DAA1F88
:10145000649F6627B00DA11D661F829F2227B00DD5
:10146000A11D621F739FB00DA11D621F839FA00D60
:10147000611D221F749F3327A00D611D231F849FB0
:10148000600D211D822F762F6A2F11249F57504007
:101490009AF0F1F088234AF0EE0FFF1FBB1F661F82
:1014A000771F881F91505040A9F79E3F510580F04B
:1014B0000C94AC090C94F7095F3FE4F3983ED4F325
:1014C000869577956795B795F795E7959F5FC1F7EF
:1014D000FE2B880F911D9695879597F9089519F41D
:1014E00016F40C94B2090C94280B0E94DC09B8F392
:1014F0009923C9F3B6F39F57550B87FF0E94360B0C
:101500000024A0E640EA900180585695979528F46B
:10151000805C660F771F881F20F026173707480763
:1015200030F4621B730B840B202931294A2BA695BA
:1015300017940794202531254A2758F7660F771FFF
:10154000881F20F026173707480730F4620B730B0B
:10155000840B200D311D411DA09581F7B901842F09
:101560009158880F9695879508959F939F77FEE3EE
:1015700080319F0728F4E8E6F0E00E94640B25C064
:10158000906841E050E00E94840B0E94F60A9F930D
:101590008F937F936F9320E030E040E85FE30E94F9
:1015A00039082F913F914F915F919F938F937F9334
:1015B0006F9360E070E080E89FE30E9438082F910D
:1015C0003F914F915F910E94AA080F9007FC90589D
:1015D00008950E948809880B990B089529F416F044
:1015E0000C94AC090C94F6090C94B2090E94DC0925
:1015F000A8F39638A0F707F80F92E8942BE33AEA9D
:1016000048EB5FE70E94180A0F920F920F924DB7B6
:101610005EB70F920E94BA0BE7E7F0E00E943D0B25
:101620004F915F91EF91FF91E595EE1FFF1F49F0FC
:10163000FE57E0684427EE0F441FFA95E1F7419505
:10164000550B0E94840B0F9007FE0C94780B0895A5
:101650009F3F31F0915020F4879577956795B79526
:10166000880F911D9695879597F908959150504050
:10167000660F771F881FD2F70895DF93CF931F93CC
:101680000F93FF92EF92DF927B018C01689406C06A
:10169000DA2EEF010E94150AFE01E894A59125912A
:1016A000359145915591A6F3EF010E945008FE0136
:1016B0009701A801DA9469F7DF90EF90FF900F91FE
:1016C0001F91CF91DF9108959F938F937F936F9395
:1016D000FF93EF939B01AC010E94020AEF91FF91EF
:1016E0000E943D0B2F913F914F915F910C94020A04
:1016F0009B01AC0160E070E080E89FE30C94AA08D5
:101700000C94AC090C94280B0E94DC09D8F39923A3
:10171000C9F3940F511DA3F39150504094F059F028
:10172000882332F0660F771F881F91505040C1F711
:101730009E3F51052CF7880F911D9695879597F937
:1017400008955F3FACF0983E9CF0BB278695779557
:101750006795B79508F4B1609395C1F7BB0F58F73B
:1017600011F460FFE8CF6F5F7F4F8F4F9F4FE3CF44
:101770000C94F709FA01DC01AA0FBB1F9B01AC0115
:10178000BF5728F4222733274427507820C0B75169
:1017900090F4AB2F0024469537952795011CA3950F
:1017A000D2F3002071F0220F331F441FB395DAF3F8
:1017B0000ED00C94380861307105A0E88A07B9464C
:1017C00030F49B01AC016627772788279078309604
:1017D00021F020833183428353830895A1E21A2E9E
:1017E000AA1BBB1BFD010DC0AA1FBB1FEE1FFF1FC5
:1017F000A217B307E407F50720F0A21BB30BE40B15
:10180000F50B661F771F881F991F1A9469F760955B
:101810007095809590959B01AC01BD01CF01089515
:10182000EE0FFF1F0590F491E02D099481E090E008
:0A183000F8940C941B0CF894FFCF01
:10183A00000080BF000080BF000080BF000080BFA2
:10184A0000006042000025430000000012017B00F6
:10185A00AA005901DB00B900CD000D0A006E616EC5
:10186A0000696E66006F7666007B002C200064209B
:10187A003D200061203D200068203D2000432E7855
:10188A00203D2000432E79203D2000522E612E78E3
:10189A00203D2000522E622E78203D2000522E61DB
:1018AA002E79203D2000522E622E79203D20007391
:1018BA006574757020646F6E6500706F696E742050
:1018CA007B35362C203136357D2066726F6D20418E
:1018DA003A20007D7D00706F696E74207B35362C4E
:1018EA00203136357D2066726F6D20423A200061C4
:0818FA006E676C65733A000093
:00000001FF
